:020000040040BA
:1000000000800020E1104000F0114000F01140009D
:10001000F0114000F0114000F0114000F0114000DC
:10002000F0114000F0114000F011400011124000AA
:10003000F0114000F0114000F0114000F1124000BA
:10004000F0114000F0114000F0114000F0114000AC
:10005000F0114000F0114000F0114000F01140009C
:100060001121400031214000F0114000F01140000A
:10007000F0114000F0114000F0114000F01140007C
:10008000F0114000F0114000F0114000F01140006C
:10009000F0114000F0114000F0114000F01140005C
:1000A000F0114000F0114000F0114000F01140004C
:1000B000F0114000F0114000F0114000F01140003C
:1000C000F0114000F0114000F0114000F01140002C
:1000D00010B582B001F07CFD002401F079F90E48E2
:1000E000002101F0FDFD21460C4801F0F9FD02F070
:1000F00027FF00944FF498714022094B094801F002
:100100001FFB00944FF49661FF22074B074801F054
:1001100017FB204602B010BD3C0A0020C809002091
:10012000112F4000B00A0020812D4000E00B00207C
:1001300003685A004CBF43F0004323F000431844C7
:10014000704700BF2DE9F04F83B099B34B1E17469F
:10015000054698460193002606EB080404EBD47488
:1001600064104FEAC40A05EB0A0B5846FFF7E0FF9C
:10017000019B8146A3420AF1080028440ED0FFF7F4
:10018000D7FFB94500F1FF3004D9B4420CD004F1D7
:10019000FF38E1E7B84203D2661CDDE7B945F4D881
:1001A000584603B0BDE8F08F4FF0000B584603B03F
:1001B000BDE8F08F8B46584603B0BDE8F08F00BF16
:1001C000012807D0022807D0044B00280CBF18468E
:1001D000002070470248704702487047D508400029
:1001E000D9084000DD08400030B5254B83B00446F7
:1001F0008D1E7BB3284601A9AFF3008020B301997F
:100200002A46FFF79FFF0546F0B1FFF791FF6B68A5
:10021000A064012B12D0002B05F1040021DBFFF7B5
:1002200087FF0023E06423650368002B1DDBFFF7D5
:100230007FFF00232061184603B030BD00232361F7
:100240000523184603B030BD002323610923184657
:1002500003B030BD0B490C4B0846591AC910019127
:10026000CEE70123E0642365DEE7C3F30360FFF715
:10027000A7FF002820610CBF09230023DBE700BF94
:1002800000000000D8434000C8444000036810B597
:10029000DA07044606D49B0700F1480009D500F0B0
:1002A0008BFC2368590709D51A070ED5DB0613D531
:1002B00010BD00F079FC23685907F5D404F1D00093
:1002C00000F082FC23681A07F0D404F5A87000F04F
:1002D00083FC2368DB06EBD404F5E870BDE810402E
:1002E00000F0BEBC03680BB1184470471846704755
:1002F00009207047704700BF70B504460D4608E0FE
:100300002A6C23696261012021462A469847082801
:1003100008D12046296CFFF767FF06460028EFD07A
:1003200002F07EFE0728FBD13046296CFFF7E2FF82
:10033000281D00F02DFC00BF2DE9F0470646ADF565
:10034000727D03AD0C1D17460FCC0FC50FCC0FC52A
:100350000FCC0FC594E80F0002AC4FF0000ED6F89A
:100360000C80D6F8189085E80F003046216CC4F850
:1003700000E0FFF739FF0546002F0CBF09270A27C9
:100380007DB1A36B47F010018DE81002012063647A
:1003900032463346C04778BB28460DF5727DBDE82E
:1003A000F087236C214673614FF4F0727AA802F053
:1003B00077FE336931467AAA38469847889B824649
:1003C0008DE8100239466364012032463346C04747
:1003D00090B920467AA94FF4F07202F061FEBAF1AA
:1003E000080F06D13046216CFFF7FEFE09270546AF
:1003F000C6E7BAF1070F04D009200DF5727DBDE8FC
:10040000F0872846216CFFF775FF03A800F0C0FBBA
:10041000406C7047F0B5CB6BF9B00B640E1D01ADAD
:100420000F4604460FCE0FC50FCE0FC50FCE0FC51A
:1004300096E80F004FF0FF3685E80F00009606E0C3
:10044000236921466A4698470828054608D1204670
:100450001099FFF7C9FE0028F2D0092079B0F0BD4D
:100460006846FFF713FF062DF7D120463946FFF700
:1004700043FF00BF30B4DD6BC160826119461D646B
:10048000002230BC58E700BF70B54369C668044617
:100490000D460B6426B10122FFF74EFF02F0C0FDAE
:1004A0000369214602202A469847072807D00828D2
:1004B00003D120462946FFF71FFF02F0B1FD304669
:1004C000296CFFF717FF281D00F062FBC26832B1EC
:1004D00010B4CC6B00220C645DF8044B2CE799E758
:1004E000704700BF836813B1014601201847704769
:1004F00000B5042907D8DFE801F00309060909005F
:100500000BB90F2A05D902205DF804FB01205DF824
:1005100004FB00EB820252681846019B1A605DF8EA
:1005200004FB00BF00B585B00A4603AB0021009371
:100530000B46FFF7DDFF039805B05DF804FB00BF35
:1005400000B5042907D8DFE801F00309060909000E
:100550000BB90F2A05D902205DF804FB01205DF8D4
:1005600004FB019900EB82020968184651605DF8AE
:1005700004FB00BF10B50C4684B004AB43F8042D57
:100580000021009322460B46FFF7DAFF04B010BDAE
:10059000F0B5D36BADF50F7D1364151D17AC074691
:1005A0000E460FCD0FC40FCD0FC40FCD0FC495E86D
:1005B0000F004FF0FF3584E80F00169511E016A8E4
:1005C0006A46FFF7D7FF16A83146B84780B9049BA3
:1005D0000820694616AA98470528044609D0092824
:1005E00006D026996846FFF7FFFD0C210028E6D0CB
:1005F000092416A8FFF74AFE20460DF50F7DF0BD31
:100600002DE9F04FCC6C904622688BB004340D4637
:100610000792089400F003091E46002B64D11202D1
:10062000032307928DF825608DF824302B6DB9F1E6
:10063000020F08BFAC6B13F0010343D100F00800B8
:10064000C2B2039201932768002F3DD0022E47D0FB
:100650002788B4F802A00434AB6C2AF0010B4046A2
:100660000F219B44FFF75EFF834537D827F0010336
:100670009B4458452CBF002001200AF0010A07F0D6
:10068000010747EA4A0ABAF1010F43D03AD3BAF157
:10069000020F1FD1236823F000420292B9F1000F2C
:1006A0007BD138B1039A002A00F08380029A002A95
:1006B00000F0A680002B7ADB029B03F1010A04EB19
:1006C0008A04C0E700230193022E40DDFFF710FEED
:1006D000002842D009200BB0BDE8F08F0020CCE705
:1006E000D4F804A00834B7E7022B9FDC130CDFB268
:1006F000120402218DF8253004EB870407928DF84F
:10070000241093E7B9F1000F02D0002840F0AD802B
:10071000043498E7B9F1000F26D1B0B194E80C0089
:10072000D70F9A1CD6D005F158020133069200F07B
:100730009280201DFFF7D6FD3A46014606AB2846BB
:10074000AFF30080002840F0B58008347BE74046D6
:1007500007A900F021FB0028BCD1019B002B59D137
:1007600008200BB0BDE8F08F40460D212F6AFFF73F
:10077000D9FE8742E9D1AB6A9C42E6D12046FFF719
:10078000D7FC0F2102464046FFF7F4FE40462A46BA
:100790000021FFF7EFFE07209DE740460D212F6A5D
:1007A000FFF7C0FE874245D02368002B84DA04346B
:1007B00082E7029B23B305F158030596039F04F1DA
:1007C000040ADDF808B0CDF810901E4602E0D945C5
:1007D0004F4615D050460696FFF784FD002201468D
:1007E00006AB2846AFF3008007F101090AF1040ABD
:1007F0000028ECD0029BDDF810909F42059ED3D1DB
:1008000040460D21FFF78EFE069B2862AC626B62AC
:10081000062060E70F214046FFF784FE0E210246C6
:100820004046FFF7A7FE40460F21294AFFF7A2FEE8
:10083000072050E7AB6A9C42B6D1042202990027F8
:10084000A318A962EF622A636B632368BB421FDBB4
:100850000123019330E740460D21FFF763FE286234
:10086000069B6B62AC62062035E72046FFF760FC12
:1008700004340646AC632846AFF3008000283FF4FA
:1008800029AF404632460F21FFF774FE072022E7CA
:100890000846013004EB8000FFF74AFC0F210246B6
:1008A0004046FFF767FE404639462A46FFF762FE9C
:1008B000072010E707460D214046FFF733FE022FC1
:1008C0002862CDD12B46069A43F82C2F6B62C9E7DC
:1008D00000000000002393E6012391E602238FE647
:1008E000F0B50546C5B004290CD8DFE801F0560381
:1008F0000B300E00012B4FEA124496B265D0052B47
:1009000000F08380022045B0F0BD002BFAD1102A00
:10091000F8D82B68DC0600F1E98022AE304601925F
:1009200000F0A8F9A86B019A0023012404FA03F14E
:10093000114203D00168043046F823100133042B20
:10094000F4D1A863304600F08BF90020DBE7032BDD
:10095000D8D1140C97B23B19102BD3D82B681E0793
:1009600000F1E48022AE30467F0000F057F906EB3C
:10097000C4027B1EAC6B57B12146043A51F8040BFC
:10098000013B42F8040F581CF8D104EB87043046B1
:10099000AC6300F021F90020B5E7002BB2D1AC6BBD
:1009A00097B2281D012606FA03F1394203F101032B
:1009B00002D0216804340160102B00F10400F2D150
:1009C00012F400501FD1AC639DE73219102A99D858
:1009D0000F2C97D829680027C80754D422A8019360
:1009E00000F0E6F8019B19E008463746012B00F0BD
:1009F00097800F2CA86302D822A800F0DDF817B169
:100A000002A800F0E1F800207DE73719202F3FF61B
:100A100079AF0F2C30D93746002E44D1A96B32461E
:100A2000002EE1D000278E4644A84FEA420C00EB8E
:100A3000C4000CF1FF328C385EF8046B013A40F8C8
:100A4000046F561CF8D101EB8C00002FCED022464B
:100A5000102C44A938BF102201EBC202A2F5C472C7
:100A600001467800043A01EB800051F8046B8142A2
:100A700042F8046FF9D1B9E7102F41D92A68103F25
:100A8000D007114610D521F00102052B2A600193F1
:100A900028465BD021F0030140F8481B00F088F89D
:100AA000019B002F4AD02A6851075BD4012B63D0E9
:100AB0000F2C04D822A8019300F082F8019B002F8C
:100AC000ACD002A8019300F083F8019BC4F110029E
:100AD000002AA96BA7DC2246102C44A838BF10229C
:100AE00000EBC202A2F5C4727800BBE723F010034A
:100AF0002B6005F5E870019200F0BCF8019A0CE754
:100B00002968C8071DD5284621F0010242F00202DB
:100B100040F8482B0193002700F052F8019BC9E7E9
:100B20000430A86322A800F03FF86CE723F0080324
:100B30002B6005F5A87000F071F813E7012B3FF466
:100B40004DAF0F2C98BF0027B4D967E742F00202DF
:100B500040F8482B00F034F8019B002FAAD02A68F7
:100B60005107A5D5284622F0040240F8D02B019366
:100B700000F02EF8019B99E722A8019300F018F8E5
:100B8000019BA3E70000000000000000000000003F
:100B900000F1340191E838009C46A6464CF8045D0B
:100BA00090E8FF0FE54600BD90EC210B704700BFB9
:100BB00080EC210B704700BF90EC200B704700BF0A
:100BC00080EC200B704700BFD0EC200B704700BFBB
:100BD000C0EC200B704700BFF0EC0201F0EC0211FA
:100BE000F0EC0221F0EC0231F0EC0241F0EC0251A9
:100BF000F0EC0261F0EC0271F0EC0281F0EC029199
:100C0000F0EC02A1F0EC02B1F0EC02C1F0EC02D188
:100C1000F0EC02E1F0EC02F1704700BFE0EC020101
:100C2000E0EC0211E0EC0221E0EC0231E0EC0241E8
:100C3000E0EC0251E0EC0261E0EC0271E0EC0281D8
:100C4000E0EC0291E0EC02A1E0EC02B1E0EC02C1C8
:100C5000E0EC02D1E0EC02E1E0EC02F1704700BF11
:100C6000B0FC0181B0FC0191B0FC01A1B0FC01B16C
:100C7000704700BFA0FC0181A0FC0191A0FC01A174
:100C8000A0FC01B1704700BFEC4600B52DE9005053
:100C90002DE9FF1F4FF000032DE90C0001A9FFF71C
:100CA000B9FBDDF840E012B0704700BFEC4600B57C
:100CB0002DE900502DE9FF1F4FF000032DE90C0036
:100CC00001A9FFF7E1FBDDF840E012B0704700BF7B
:100CD000EC4600B52DE900502DE9FF1F4FF0000351
:100CE0002DE90C0001A9FFF7F1FBDDF840E012B09F
:100CF000704700BFEC4600B52DE900502DE9FF1FFD
:100D00004FF000032DE90C0001ABFFF7B3FBDDF85A
:100D100040E012B0704700BFEC4600B52DE900502E
:100D20002DE9FF1F4FF000032DE90C0001AAFFF78A
:100D30002FFCDDF840E012B0704700BF000000005B
:100D4000037A1BB9437A43B9B02070475A1E03682F
:100D500002721A020260180E70474268013B10B41A
:100D6000437213680321141D01721A024460026069
:100D70005DF8044B180E704700B585B003AB002139
:100D800000930C220B46FFF7B3FB039805B05DF808
:100D900004FB00BFF0E700BF2DE9F04306460D4617
:100DA00085B04FF000082846FFF7CAFFB028044678
:100DB00000F0B58020F07F0111F0FF0120D000F09D
:100DC000F003802B7AD0902B36D0A02B49D0B02BBB
:100DD0005CD0C02B00F0898000F0F803D02B0BD141
:100DE00000F00702013242F40022304601210523BF
:100DF000FFF776FD0028D6D0092005B0BDE8F083C6
:100E00000DF10C090B468700CDF8009030460D22FD
:100E1000FFF76EFBFFB2039B043760064FF0000143
:100E20004CBFDF1BFF18CDF800900B4630460D225B
:100E30000397FFF785FBB6E700F00D030D2BDBD022
:100E400003AF002100F00F020B4600973046FFF77A
:100E50004FFB002100970B4630460D22FFF770FB39
:100E6000A1E7C3434FF47F6203F007031A41010770
:100E700002F47F624FF0000148BF42F480420B460B
:100E80003046FFF72DFD0028B6D18CE7B1284CD0B5
:100E9000B2285DD0B32800F08A8000F0FC03B42BA8
:100EA000AAD000F007020132012142F400220B46D1
:100EB0003046FFF715FD00289ED174E72846FFF75E
:100EC0003FFF24022043B0F5004F95D004010021DC
:100ED000A2B20B463046FFF703FD00288CD114F474
:100EE000004F18BF4FF001085DE7C62872D0C72831
:100EF0007AD000F0F803C02B00F08980C82800F0F9
:100F0000A580C9287FF478AF2846FFF719FF00F0C5
:100F10000F02013200F0F00042EA003265E7B8F15A
:100F2000000F00F08280002067E72846FFF708FFE7
:100F3000024600283FF460AF10F0F0017FF45CAF90
:100F400030460B46FFF7CCFC00287FF455AF2AE76C
:100F500000210DF10C090D220B46CDF80090304612
:100F6000FFF7C6FA2846FFF7EBFE02064FF0020431
:100F70000CD5039B00F07F00A04003442846039358
:100F8000FFF7DEFE030604F10704F2D4039B00F032
:100F90007F00A04003F5017300211C18CDF80090DC
:100FA0000B4630460D220394FFF7CAFAFBE62846AB
:100FB000FFF7C6FE00F00F02013200F0F000012141
:100FC00042EA00320B463046FFF78AFC00287FF4E5
:100FD00013AFE8E62846FFF7B3FE00F00F02013238
:100FE00000F0F0000321EBE72846FFF7A9FE0246D8
:100FF00000283FF401AF10F0F0037FF4FDAE30465F
:101000000421FFF76DFC00287FF4F6AECBE600F07C
:101010000F020132032142F420220B463046FFF733
:101020005FFC00287FF4E8AEBDE603AC41460E222B
:10103000434600943046FFF75BFA00943046414641
:101040000F224346FFF77CFA4046D6E62846FFF7D4
:1010500077FE00F0F00200F00F031032013343EA94
:101060000232C2E610B5C36C84B003205A688DF812
:101070000C00DC7912020833084601A901928DF8B0
:101080000D400293FFF788FE04B010BD08B5FFF7CE
:1010900081FE806C08BD00BF08B5FFF77BFEC36C06
:1010A000D87903EB8000083008BD00BF08B501F017
:1010B000B7FF00BF08B501F0B3FF00BF000000009C
:1010C000704700BF000000000000000000000000AA
:1010D000FEE700BF0000000000000000000000006C
:1010E00072B6334C84F30988022383F31488BFF368
:1010F0006F8F01F0EDFB2F492F4A91420CD2C8436C
:10110000024422F0030204320B460A444FF05531E8
:1011100043F8041B9342FBD12849A1420DD2284A2F
:10112000081D121A22F0030204320B460A444FF043
:10113000553143F8041B9342FBD1224A224B9A4279
:101140000DD2D043214918440B4620F0030004304F
:10115000084453F8041B834242F8041BF9D11C498C
:101160001C4A91420BD2C843024422F003020432CB
:101170000B460A44002143F8041B9342FBD1164D51
:10118000164CFFF79DFFAC4204D254F8043B98473D
:10119000AC42FAD3124D134CFEF79AFFAC4204D284
:1011A00054F8043B9847AC42FAD3FFF791FF00BFD5
:1011B000000800200000002000040020000400209F
:1011C000030800200008002068080020C8444000F0
:1011D00068080020A4100020D0004000D00040008B
:1011E000D0004000D00040000000000000000000DF
:1011F000FEE700BF0000000000000000000000004B
:1012000000F04EFA00DF00BF000000000000000008
:10121000EFF30983203383F30988002383F31188D4
:10122000704700BF00000000000000000000000048
:1012300008B50A4A0A4B002199600720DA6010219C
:1012400000F09EF80A204FF4007100F099F8BDE814
:1012500008400B20802100F093B800BF0000FA0581
:1012600000ED00E0000000000000000000000000B1
:10127000202383F31188174B5B6813F4006319D0A4
:10128000EFF30983A3F1200282F30988124A4FF099
:101290008070916943F8040C106871B1D16982685B
:1012A00089688A4294BF002201227AB10B4A43F82E
:1012B000082C704783F311887047D1698268896868
:1012C0008A4234BF00220122002AEFD1044A43F8A7
:1012D000082C704700ED00E080090020011240005A
:1012E00004124000000000000000000000000000A8
:1012F00008B5202383F3118800F09AF8002383F3C4
:101300001188BDE80840FFF7B3BF00BF0000000030
:101310002DE9F04FC1F80CD0D0F80CD0BDE8F08F1B
:10132000002383F311882846A04700F079FA70471C
:1013300020F0030202F1604270B402F5614200F055
:101340000304D2F80053E4004309FF26A6409B00A3
:10135000A14025EA0605012403F1604300F01F00C7
:1013600004FA00F0294303F56143C2F8001370BC8E
:10137000C3F8800118607047000000000000000002
:1013800020F0030303F1604303F56D4300F0030015
:1013900010B4C0009A69FF24844022EA040281400C
:1013A000114399615DF8044B704700BF00000000D5
:1013B000024B034ADB699A61FEE700BF8009002007
:1013C000803F40000000000000000000000000001E
:1013D00000B583B0FFF72CFF00F0CAF800F050F81A
:1013E00000F0AEFB00F0E4FB40210B4800F080F978
:1013F0000A490122C8610023027783F3118862B68B
:101400000748C96988610093C021064B064800F06F
:1014100097F903B05DF804FB6808002080090020FC
:10142000883F4000B1134000B008002000000000D9
:10143000114A38B59369D169002BC4BF03F1FF335A
:1014400093610A6A0D4C01320A62E2682368013234
:10145000A342E2600ED09D68013D9D6055B91A68B7
:10146000D9681869DD6022605460884723689A68EB
:10147000002AF4D038BD00BF800900207009002088
:10148000044B4FF0FF3100225B601B609960DA6013
:10149000704700BF7009002000000000000000003D
:1014A00010B40D4C03612368C2609A68914204D95C
:1014B0001B68891A9A688A42FAD35A68A342036061
:1014C000426058601060816002D09A68511A996039
:1014D0005DF8044B704700BF700900200000000059
:1014E000074A0368934203D0996882680A449A6065
:1014F00042680021136003685A60C160704700BFF2
:101500007009002000000000000000000000000042
:10151000037F10B40D2B11D8DFE803F02010100763
:10152000100B101010101010100B426A936801334A
:10153000936090E80C001A60026853604FF0FF342B
:1015400000228168074B446202771B689A688A42CE
:10155000FBD25A6803604260586010605DF8044B2B
:10156000704700BF8009002000000000000000005C
:10157000044B002114225B601B605B611B6199605E
:101580009A61704780090020000000000000000000
:1015900010B4044600228168074B02771B689A68E2
:1015A0008A42FBD25A682046236062605C60146005
:1015B0005DF8044B704700BF800900200000000068
:1015C000084B70B41A68D969146814260125087785
:1015D0009E616360DA6115771C60104670BCFFF78E
:1015E00097BE00BF8009002000000000000000003E
:1015F00030B54B1C87B012D005460C4C01A8E369EE
:101600000B4AFFF74DFF2846FFF7DAFF049B13B1A3
:1016100001A8FFF765FFE369586A07B030BDFFF71F
:10162000CFFF024CE369586A07B030BD8009002043
:101630001115400000000000000000000000000044
:10164000154BF0B4DE69846805464162B068844297
:101650000CD800222A771B689A689442FBD95A68F2
:101660002B606A605D601560F0BC70471A4600210F
:101670003177126891688842FBD95468012786E85F
:10168000140056602660DD612F7731462846F0BC95
:1016900014229A61FFF73CBE800900200000000080
:1016A000104AF0B51068D46905684FF0140E012790
:1016B0000026A1680346C2F818E015606A60D06190
:1016C0000777267700E01B689A688A42FBD25A683F
:1016D0002146236062605C601460BDE8F040FFF763
:1016E00017BE00BF800900200000000000000000BD
:1016F000F0B50F4C0022666900F12C054FF0020C8A
:101700004FF0010E00F12807466181600461016419
:10171000606180F81CC080F81EE04277C26382637B
:1017200002628261306187620563C562F0BD00BFFD
:101730008009002000000000000000000000000000
:101740002DE9F84F1E4696460446202383F3118860
:10175000194B243947185A69DFF860B0C760465002
:101760000A99002500F12C0600F128084FF0020A22
:101770004FF001097960C7F820B029460361C0F82D
:1017800008E04261C0F840E0586180F81CA080F891
:101790001E904577C5638563056285611061C0F859
:1017A00028800663C662FFF74BFF2B4683F3118840
:1017B0002046BDE8F88F00BF8009002021134000BB
:1017C00008B50146202383F311880620FFF710FF98
:1017D000002383F3118808BD000000000000000012
:1017E00038B50E4BDC69254655F8283F6062AB42A0
:1017F00007D01A681846A262FFF7CAFEA36AAB4276
:10180000F7D1637F9B0704D1226963691A6122695A
:1018100053610E20BDE83840FFF7D2BE800900209A
:10182000202383F31188FFF7DBBF00BF0000000017
:101830000023406000608360704700BF000000002C
:1018400008B5836B027F1943082A81630BD0092AEC
:1018500000D008BD436A19408B42FAD1FFF798FEC9
:101860000023436208BD436A1942F7D108BD00BF97
:1018700070B504680546A0420E4607D0A1686068AE
:101880003143FFF7DDFF2468A542F7D170BD00BFEB
:1018900071B10246084B10B4DB690D205A625468DE
:1018A00083E81400536023605DF8044BFFF7A0BE8B
:1018B0004FF0FF30704700BF80090020000000009B
:1018C00010B40A44002484600261406000604161F9
:1018D0008161C160C3615DF8044B70470000000086
:1018E000034640699A6910B590429A6818D001324F
:1018F000441C5C619A6001701A69596918689142C8
:1019000024BFDA685A61984208D002681A605360AE
:10191000FFF73EFE00234362184610BD002010BDB5
:10192000002AE4D06FF0030010BD00BF00000000EB
:1019300070B520230E46044683F31188C3693BB17A
:10194000984705E020463146FFF7A2FF002813DB49
:10195000A568002DF6D0A2692169531C8B42A361B2
:1019600005F1FF3528BFE368A560107828BFA361A3
:10197000002383F3118870BD2B4683F3118870BD5B
:101980002DE9F0471E46044689469246D0F81C8051
:10199000202383F311880027B8F1000F07D02046D9
:1019A000C04704E020463146FFF772FFD0B9A56872
:1019B000002DF7D0A369013D5A1CA261A5601B78D8
:1019C00009F8013B2369A2699A4224BFE368A36135
:1019D000002383F311880137BA4506D0202383F30F
:1019E0001188D9E72B4683F311883846BDE8F08784
:1019F00010B48C18046140600060826041618161B4
:101A0000C160C3615DF8044B704700BF0000000077
:101A1000F8B504460F461646202383F3118805E0E7
:101A200020463146FFF734FF002817DBA568002D5C
:101A3000F6D06369013D5A1C6261A5601F7023697D
:101A400062699A4224BFE3686361E3690BB120468F
:101A50009847002383F311881846F8BD2B4683F37B
:101A60001188F8BD00000000000000000000000028
:101A700038B5826943699342836818D00569013398
:101A8000511CA94283608161147828BFC368026831
:101A900028BF8361824208D003461168104619604E
:101AA0004B60FFF775FD00234362204638BD002BD5
:101AB000E4D06FF0020038BD00000000000000001C
:101AC0002DE9F84F9A4604460E461746D0F81C906A
:101AD000202383F311884FF00008A56806F1010B5D
:101AE0006A1E0DB36369A2605A1C626132781A7073
:101AF000236962699A4224BFE3686361B9F1000F08
:101B000001D02046C847002383F31188013F08F124
:101B1000010812D0202383F311885E46A56806F1E0
:101B2000010B6A1E002DDDD120465146FFF7B0FEA5
:101B30000028D2D02B4683F311884046BDE8F88FA9
:101B4000054A064B0648074922F0070223F007031F
:101B500002600B60704700BFAB10002000800020C7
:101B6000A4090020A00900200000000000000000DF
:101B700010B4202383F31188094C0A4B226819689A
:101B8000C31D23F00703891A8B429DBF9B18236056
:101B900010460020002383F311885DF8044B704742
:101BA000A4090020A009002000000000000000009F
:101BB000044B0549002203F1100019609A60DA60B5
:101BC000FFF736BEA8090020711B4000000000008E
:101BD00008B500F0BDF8044800F0B2F900F058F87C
:101BE000BDE8084000F07CBE00424000000000005C
:101BF000806BB0FA80F04009704700BF0000000021
:101C00008069B0FA80F04009704700BF0000000012
:101C10000246202383F31188002180680B469160DF
:101C200083F31188704700BF00000000000000002F
:101C30001030FFF7A5BE00BF00000000000000004C
:101C400010304FF0FF33FFF79BBE00BF00000000D5
:101C50003030FFF735BF00BF00000000000000007B
:101C600030304FF0FF33FFF72BBF00BF0000000004
:101C70001030FFF75DBE00BF000000000000000054
:101C80003030FFF7C5BE00BF0000000000000000BC
:101C900000F05EBA0000000000000000000000003C
:101CA00070B5044615460D4A002640F8042B012263
:101CB0000B466060227304F1100004F15001A6602D
:101CC0001022FFF7FDFD2B4604F1300004F1600106
:101CD0001022BDE87040FFF78BBE00BF903F400070
:101CE00010B52023044683F3118800F061FA022323
:101CF0002373002383F3118810BD00BF0000000090
:101D000038B5836904460D463BB1294604F11000FD
:101D1000FFF7E6FD00280FDB38BD8268194642F068
:101D2000040282600430FFF7A3FD294604F110008D
:101D3000FFF7D6FD0028EFDAA368201D43F08003EB
:101D4000A3600021BDE83840FFF792BD000000000D
:101D500008B500F025F80B200821FFF711FB074B11
:101D600007491B68074AA1FB03139B09013B00209D
:101D7000072153609060116008BD00BF000800207B
:101D8000D34D621010E000E00000000000000000F1
:101D900000F086B800000000000000000000000015
:101DA000354910B40B6B03F00303022B3ED0032B19
:101DB0002BD0012B17D0314B31485B691A064CBF31
:101DC0004FF400434FF4FA4303602B490A6BC2F30C
:101DD0000212072A22D00A6B5DF8044BC2F30212EA
:101DE000D340036070470B6A254813F0807338D1E5
:101DF000244C04600A6AC2F30112022A31D0032A79
:101E00002DD0012A33D02346DFE71D4800231A498D
:101E100003600A6BC2F30212072ADCD11A4A5DF88A
:101E2000044BA2FB03235B08036070470B6ADB01D2
:101E30001AD41348134A02600B6AC3F30113012B2F
:101E400018D01249022B08BF0A460B4B996A9B6AAD
:101E5000C1F30A4101FB0222DBB2B2FBF3F30360E0
:101E6000B3E70A4B0360B0E7084A0548EDE7084BC3
:101E70000360AAE7064AE8E700040E4010140E408B
:101E80000008002000093D00ABAAAAAA001BB70069
:101E900000127A00000000000000000000000000B6
:101EA0001D4B30B41A461D4C1D481E494FF4007599
:101EB0002560C3F8E4001962936E9B03FCD51649B4
:101EC0008B6E154ADD07FBD51146174B93628B6E5F
:101ED000114A9C07FBD51146136B23F0700343F0A6
:101EE000200313638B6E0C4A1807FBD5114622237F
:101EF00013638B6E084A1B07FBD50C480C4B00255F
:101F00004FF4E0544FF4004115601461C2F8E4004E
:101F100030BC5960704700BF00040E40000A0E40FC
:101F200000434D500908370101860F2001434D50F1
:101F300050140E40000000000000000000000000EF
:101F400070B4284B284C294A0121C3F8E440196198
:101F5000C3F8E4208168264ACC434FF0FF33516632
:101F60001466136001680024916345682149EE43BB
:101F70001561566153625364536514675467C2F820
:101F8000A0304569EE434D660E660B60C5688D63F3
:101F90000569EE430D614E614B624B644B650C6706
:101FA0004C67C1F8A030016ACD43C2F86414C2F88E
:101FB0006054C2F800348169C2F83814C169C8435A
:101FC000C2F81014C2F81404C2F82434C2F844341D
:101FD000C2F85434C2F87044C2F87444C2F8A03451
:101FE00070BC704700040E4000434D5001434D50FB
:101FF000000E0E4000100E40000000000000000027
:1020000002F01F02072A08D8DFE802F010080D10BE
:10201000070D0904416601610165704701630166AE
:1020200001614165704701664161704741664161E8
:10203000704700BF0000000000000000000000002A
:10204000014B02229A60704700060E40000000001B
:10205000014B02229A60704700080E400000000009
:1020600070B5056F06466C69E10726D42B699B079E
:1020700001D5A0072CD414F0E0041DD0A4B214F0B4
:10208000200F0CBF00228022210648BF42F0200210
:10209000630648BF42F04002202383F31188B368EF
:1020A000301D1A43B2600021FFF7E2FB002383F3E7
:1020B00011884FF480732B6070BD202383F3118847
:1020C000A969C9B2FFF71CFE002383F31188CDE78D
:1020D000202383F3118806F13000FFF7C9FC0028A4
:1020E00004DBE861002383F31188C4E7B368301D83
:1020F00043F00803B3600021FFF7BAFB0223EB6053
:10210000F0E700BF00000000000000000000000039
:1021100008B50348FFF7A4FFBDE80840FFF7A8B8DB
:10212000C8090020000000000000000000000000BE
:1021300008B50348FFF794FFBDE80840FFF798B8DB
:102140003C0A002000000000000000000000000029
:1021500070B50D4D002128460C4AFFF7A1FD0C4C2F
:102160000C4B4FF4C0620C4E5A6000211A66204698
:102170000A4A2E67FFF794FD094B0A490C22216792
:102180005A601A6670BD00BFC80900204120400097
:102190003C0A0020000E0E4000060E405120400078
:1021A00000100E4000080E4000000000000000007B
:1021B00070B5037B204D0446002918BF0D46012B46
:1021C00016D0246FFFF7ECFD1C4A2B6812681B0128
:1021D000B2FBF3F368684FF0FF364FF48675502179
:1021E000E322E6602560236260602160A26070BD2A
:1021F000134B984211D0134B9842E2D1124B134823
:10220000134A4FF40071C3F8E40019610920C0219A
:10221000C3F8E420FFF78CF8D3E70B4B0B480C4ACC
:102220004FF48071C3F8E40019610820C021C3F89D
:10223000E420FFF77DF8C4E7C03F4000000800201D
:10224000C80900203C0A002000040E4000434D5005
:1022500001434D500000000000000000000000009D
:1022600070B50D4600F10C0431B314F8033C062B95
:1022700000F29D80DFE803F07E68573F22040400EF
:1022800014F8026C54F8082C54F80C1C06F00400E6
:10229000C0B2F60751644CBF51661166002840F089
:1022A00081805165062B0CBF11635163013D1161A3
:1022B00004F10C041160D8D1012070BD14F8040C95
:1022C00000F0DEFA14F8021C54F8083C54F80C2C08
:1022D000CE075A644CBF5A661A6611F00A0F14BF33
:1022E0001A625A6288075FD4090748BFC3F884207E
:1022F0005A611A6011E014F8021C54F8083C54F8B2
:102300000C2CC9075A644CBF5A661A66196F1143E0
:102310001967596F114359675A60013D04F10C0464
:10232000A3D1012070BD14F8021C54F8083C54F8E5
:102330000C2CC8075A644CBF5A661A66196F186F7E
:10234000014021EA0201E3E714F8021C54F8083CBA
:1023500054F80C2CCE075A644CBF5A661A66196F93
:1023600011431967596F586F014021EA02015967FB
:102370005A60D2E754F80C1C14F8022CC84354F8E5
:10238000083CD20759644CBF596619661A6F1E6F14
:10239000324002401A675A6F5E6F324010405867F1
:1023A0005960BAE711657DE7C3F88020A0E70020F7
:1023B00070BD00BF00000000000000000000000031
:1023C00008B50348ED21034A034B00F031FE00BF7E
:1023D00030404000404140006040400000000000AC
:1023E00038B510B34900B2FBF1F28023102101602F
:1023F0000360036B042120250824043A00230560B0
:102400000460016022FA03F1FF2904D9013322FAA2
:1024100003F1FF29FAD8072B0DD80A0242EA034339
:10242000194300230361016138BD06486721064A4C
:10243000064B00F0FDFD03488521034A044B00F0E4
:10244000F7FD00BF30404000004040006C404000BD
:102450007440400000000000000000000000000088
:1024600008B510B10223036008BD0348B121034A37
:10247000034B00F0DDFD00BF304040001041400044
:10248000604040000000000000000000000000006C
:1024900010B590B10C0622D412F07F4419D1032B51
:1024A00011D81B0243F4805343EA014101234460E5
:1024B0004160C460C260036010BD0C48C5210C4A75
:1024C0000C4B00F0B5FD0948C821094A0A4B00F041
:1024D000AFFD0648C721064A084B00F0A9FD034896
:1024E000C621034A064B00F0A3FD00BF3040400068
:1024F0003041400060404000E8404000C84040009B
:10250000B04040000000000000000000000000009B
:1025100010B1006BC0B2704708B50348DE21034A12
:10252000034B00F085FD00BF3040400020414000DB
:1025300060404000000000000000000000000000BB
:1025400008B14163704708B5FFF73AFF000000008B
:1025500038B59DF8105078B10C0622D412F07F44A3
:1025600018D1032B0FD81B0243EA0141446041609C
:10257000C460C260456338BD0D484FF482710D4A96
:102580000D4B00F055FD0A4840F20711094A0B4B6C
:1025900000F04EFD06484FF48371064A084B00F0E8
:1025A00047FD034840F20511024A064B00F040FD8A
:1025B00030404000D03F400060404000E8404000D4
:1025C000C8404000B0404000000000000000000093
:1025D000006AC0F3400070470000000000000000E7
:1025E000006AC0F380007047000000000000000097
:1025F000006A00F0010070470000000000000000C9
:1026000008B530B121F4776323F0070343B9416281
:1026100008BD074840F23D11064A074B00F008FD8F
:1026200003484FF49F71034A044B00F001FD00BFC3
:10263000304040002040400060404000F4404000F6
:1026400008B520B1036843F00203036008BD0348E6
:102650004FF4BC71024A034B00F0EAFC30404000EA
:10266000E03F40006040400000000000000000002B
:10267000002380E80A00704700000000000000000E
:102680002DE9F04E0C06814605680E464068099F0C
:102690006BD412F07F4F934661D1032B9A4654D8E6
:1026A00010B10120BDE8F08E012F3FD00A98B8B1DB
:1026B0000A9AFF231146C9F80420089A00242846E4
:1026C0008A60CF600B700C610221FFF799FF2846EA
:1026D00031465A465346FFF7DBFE2046BDE8F08EF2
:1026E0002846FFF7D5FEA7B1012F34D04CF2503465
:1026F00001E0013C04D02846FFF76AFF0028F8D02B
:102700002846FFF705FF089B013F03F8010B0893DC
:10271000EAD14CF2503401E0013C14D02846FFF7D6
:1027200067FF0028F8D00020BDE8F08E2846FFF7AC
:1027300097FE0A9B002BBBD131465A46534628468A
:10274000FFF7A6FED0E7BDE8F08E0B48B8210B4A94
:102750000B4B00F06DFC2846FFF782FEC6E70648EB
:10276000B721064A074B00F063FC0348B621034A31
:10277000054B00F05DFC00BF60414000504140004F
:10278000E8404000C8404000B04040000000000069
:10279000F0B50F0683B0056844680A9E54D412F061
:1027A0007F4F964649D1032B55D814B1012003B071
:1027B000F0BDBEB1466008984FF0FF0EB0600998BA
:1027C0000127F060089886F800E03761067828460F
:1027D0000096FFF7BDFE28460421FFF711FF2046B3
:1027E00003B0F0BD0898047828460094089CFFF7D1
:1027F000AFFE099B661C5F1E10D04CF2503401E006
:10280000013C04D02846FFF7EBFE0028F8D028460C
:1028100016F8011BFFF794FE013FEED12846FFF7A3
:102820000FFF4CF2503401E0013CC0D02846FFF7C6
:10283000DFFE0028F8D00020B9E70A484FF486717F
:10284000094A0A4B00F0F4FB064840F20B11064A15
:10285000074B00F0EDFB034840F20D11024A054B17
:1028600000F0E6FB6041400090414000C84040005D
:10287000B0404000E84040000000000000000000C0
:10288000222808B515D81F280D4907D801238A69C1
:1028900083401A4093420BD00B6108BDD1F8082148
:1028A0002038012383401A40934218BFC1F80031F9
:1028B00008BD04483F21044A044B00F0B9FB00BFA7
:1028C00000040E40C0414000A0414000EC414000E7
:1028D000024B4FF400425A60FFF75ABA50140E40B0
:1028E00008B5062204484FF40031FFF789FB034B7B
:1028F0004FF400321A6308BD00120E40000E0E4065
:10290000162303604FF0FF30704700BF0000000047
:1029100000207047000000000000000000000000E0
:102920001846704700000000000000000000000092
:1029300000207047000000000000000000000000C0
:1029400010B504460846FFF713F900B110BD0C237B
:1029500023604FF0FF3010BD0000000000000000B9
:1029600010B51446002110463C2200F0A9FB4FF49C
:1029700000536360002010BD000000000000000054
:10298000012070470000000000000000000000006F
:102990000020704700000000000000000000000060
:1029A000FEE700BF00000000000000000000000083
:1029B0004FF0FF30704700BF000000000000000033
:1029C00070B400F10B063446B1FBF2F502FB1511B1
:1029D00001F13003392BC8BF01F13703DBB204F832
:1029E000013D2946002DEFD1321B024401E014F8CD
:1029F000013F00F8013B9042F9D170BC704700BF25
:102A00000EB42DE9F04F064684B00DAB53F8044BDD
:102A10000DF1040800930DF10503C8EB03092178BB
:102A2000631C61B125290FD01C46326830461569F8
:102A30004FF0FF32A8472178631C0029F2D104B07F
:102A4000BDE8F04F03B07047627800982D2A03BFAD
:102A5000A278A31C4FF0010A4FF0000A2E2A03BFF0
:102A60005A78013330272027591C002505E00378C8
:102A70000430227803EB4E050131A2F13003DBB2C2
:102A8000092B0C4605EB850EF3D92A2AEFD02E2A06
:102A900000904FF000014BD002F0DF034C2B57D0D9
:102AA000A2F14103DBB2192B8CBF00230123A2F159
:102AB00044009E46342800F22381DFE810F0D10064
:102AC00021012101210121012101210121012101F6
:102AD000210121018C00210121012101210121017C
:102AE00016012101210128012101210121012101DA
:102AF000210121012101210121012101EB00D1004E
:102B000021012101210121012101210121012101B5
:102B1000210121018C00210121012101F700210166
:102B200016012101210128010378043003EB4E0135
:102B300014F8012B01EB810EA2F13003DBB2092B5B
:102B4000F4D92A2AF0D002F0DF034C2B0090A7D151
:102B50002378002B00F0D480A3F144020134342AFE
:102B600000F2CD80DFE812F0E000CB00CB00CB001C
:102B7000CB00CB00CB00CB00CB00CB00CB00350093
:102B8000CB00CB00CB00CB00CB00BF00CB00CB00F9
:102B9000FB00CB00CB00CB00CB00CB00CB00CB00AD
:102BA000CB00CB00CB009600E000CB00CB00CB00ED
:102BB000CB00CB00CB00CB00CB00CB00CB00350053
:102BC000CB00CB00CB00A200CB00BF00CB00CB00E2
:102BD000FB004FF0010E0822BEF1000F40F08A808A
:102BE000009B181D196800904046FFF7E9FEC34698
:102BF000C8EB0000431E2D1A25EAE575BAF1000F57
:102C000044D19A466D426DB19BF800102D2900F019
:102C1000988032683046136939464FF0FF32984742
:102C20000135F6D1BAF1000FFFF6F9AE32680AF1BC
:102C3000FF3A136930461BF8011B4FF0FF329847EB
:102C4000BAF1FF3FF2D1002D3FF4E9AE33683046D0
:102C50001B6939464FF0FF329847013DF6D1DEE659
:102C6000002B61D1009B19681A1D0029009261DBBD
:102C700040460A22FFF7A4FEC8EB00002D1A431EAF
:102C8000C34625EAE575BAF1000FBAD0B3F1000AE0
:102C9000CCDAD8E7009B48461A68043300938DF8D5
:102CA000042009F1FF332027C346A4E7009B314AE3
:102CB000D3F800B00433BBF1000F08BF9346009374
:102CC0009BF8003029B343B30139584601E04B1C4F
:102CD00004D010F8013F0139002BF8D1CBEB0000F4
:102CE000431E202787E74FF0010E0A22BEF1000F96
:102CF0003FF476AF009B191D0091196874E71A46DE
:102D00004846C3468DF8042009F1FF3373E71022CB
:102D100062E747F6FE71002BD7D125EAE575BAF1D7
:102D2000000F22D020278EE7009B19681A1D00296A
:102D300000929DDA2D2349428DF804300DF10500F3
:102D400097E7302F7FF465AF3268304613694FF054
:102D5000FF3298470BF1010B0AF1FF3A59E7009B4C
:102D60001022191D009119683EE74FF0FF3A202705
:102D700048E700BF304240000000000000000000B3
:102D800010B50024AAB053484FF0FF31FEF7D0FD34
:102D9000642CC0B228BF00240D280BD00A2809D00B
:102DA000A0F120035E2BEED82AAB234403F8640C79
:102DB0000134E8E72AAB1C4411A80023464904F873
:102DC000643C00F0A5FC002800F0828011A8434973
:102DD00000F0B6FC6C46034640B144F8043F0020C6
:102DE0003E4900F0ADFC03460028F6D14EF66024C3
:102DF00068206B21002200F0D3F86A463B210223B1
:102E0000682000F0EDF89DF801109DF8003034487E
:102E100041EA032303F5EA4330339BB2A34231492D
:102E200094BF00240124FFF7EBFD2D480499FFF720
:102E3000E7FD2B482C49FFF7E3FD29482B49FFF715
:102E4000DFFD27480599FFF7DBFD25482649FFF7F9
:102E5000D7FD23482649FFF7D3FD21480699FFF700
:102E6000CFFD1F482049FFF7CBFD1D482149FFF743
:102E7000C7FD1B480799FFF7C3FD19481A49FFF71B
:102E8000BFFD17481C49FFF7BBFD15480899FFF720
:102E9000B7FD13481449FFF7B3FD11481749FFF771
:102EA000AFFD0F480399FFF7ABFD0D480E49FFF743
:102EB000A7FD0B481249FFF7A3FD22460848114918
:102EC000FFF79EFD06481049FFF79AFD00245AE7D8
:102ED000044658E7D80900204042400048424000DC
:102EE0003C0A00204C4240005442400058424000FE
:102EF000604240006842400070424000744240001E
:102F00007C424000844240008842400000000000B3
:102F100070B54FF400352E46054C66634FF47A7059
:102F2000FEF74EFC25630120FEF74AFCF5E700BFE3
:102F300000120E4000000000000000000000000031
:102F400010B5202383F3118802210D48FFF788F97B
:102F50000C4C0D4B0D480E4A4FF40021C3F8E40011
:102F600019612046C3F8E4200A490B4AFFF738FAF2
:102F700021460A48FFF77CFB002383F3118810BD2C
:102F8000904240000080014000040E4000434D503C
:102F900001434D50801A06000090D003901000208D
:102FA00070B586B006AC0E4604F8012D202383F3DD
:102FB00011880123002501460193009432460295B1
:102FC0000348FFF7E5FB2B4683F3118806B070BD7D
:102FD0009010002000000000000000000000000031
:102FE00070B51C4684B00E46202383F3118800255B
:102FF0008DE8140001463246029501230548FFF78B
:103000003FFBA84218BF2C462B4683F3118820466D
:1030100004B070BD9010002000000000000000000F
:1030200008B5062000F04CFB0120FFF7B9FC0000BA
:103030001FB5054608480068C06812B9074C22460B
:1030400000E0074C8DE81200029206491A462B4612
:1030500000F00EF8FFF7E4FF64080020EB424000A8
:10306000B0424000BD4240000000000000000000EF
:103070000EB403B5014603AB054853F8042B0068B2
:10308000019300F055F802B05DF804EB03B070470F
:1030900064080020000000000000000000000000A4
:1030A00010B5431E0A44914204D011F8014B03F8B5
:1030B000014FF8E710BD0000000000000000000014
:1030C00003460244934202D003F8011BFAE770471B
:1030D000936810B5013B002B936009DA9469A34211
:1030E00002DBCBB20A2B03D1BDE8104000F090BB4D
:1030F0001368581C10601970C8B210BD00000000A1
:10310000F8B506460F461446D518AC4208D03046EE
:1031100014F8011B3A46FFF7DBFF431CF5D100E032
:103120000020F8BD000000000000000000000000CA
:103130002DE9F0439DB00D4690460393064618B125
:1031400083690BB900F02CFD754B9D4201D1756868
:1031500008E0744B9D4201D1B56803E0724B9D427B
:1031600008BFF568AB891C070AD52B6943B100235A
:10317000099320238DF8293030238DF82A3041E03F
:103180003046294600F09CFB0028F0D04FF0FF307D
:10319000C2E0039A0134111D12680391002ABBBFDB
:1031A000524243F0020307920792B8BF0493237878
:1031B0002E2B7BD0DFF8808121784046032200F05F
:1031C000D7FD38B1049AC8EB000040238340134375
:1031D0000493013421785548062204F101088DF842
:1031E000281000F0C5FD002800F08580504B002B12
:1031F00078D1039B073323F0070308330393099B1C
:103200003B44099343461C4613F8012B1AB9B4EB0F
:1032100008090ED002E0252AF5D1F8E73046294604
:1032200042464B46FFF76CFF013070D0099B4B4480
:1032300009932378002B6AD000234FF0FF320493C8
:103240000793059206938DF853301A9304F1010801
:103250004446DFF8E89021784846052200F088FDD2
:1032600008F10108049B30B1C9EB00000122824043
:1032700013430493ECE7D80644BF20228DF8532073
:10328000190744BF2B228DF8532022782A2A80D098
:10329000234607991C4622780133303A092A03D87D
:1032A0000A2000FB0121F5E7079180E763782A2BCC
:1032B0000AD1039B02341A1D1B680392002BB8BF6E
:1032C0004FF0FF33059375E7611C00220C4623780D
:1032D0000131303B092B03D80A2000FB0232F5E70D
:1032E000059267E703AB0093304604A92A46114BC9
:1032F000AFF3008007E003AB0093304604A92A46F1
:103300000C4B00F095F8421C07467FF478AFAB8970
:103310005B063FF53BAF09981DB0BDE8F08300BFE9
:103320006043400080434000A04340001A434000F7
:1033300000000000013140001643400010434000EF
:103340002DE9F84391461F468A680B690646934269
:10335000B8BF1346C9F8003091F843200C46DDF899
:10336000208012B10133C9F800302368990642BFAA
:10337000D9F800300233C9F80030256815F0060589
:103380001CD094F843302268003318BF0123920602
:103390001FD5E118302081F843005A1C94F84510DD
:1033A0002244023382F8431013E03046394604F1D8
:1033B00019020123C047013007D00135E368D9F86D
:1033C00000209B1A9D42F0DBDBE74FF0FF30BDE8A9
:1033D000F8833046394604F14302C0470130F4D047
:1033E0002268D9F80050E36802F00602042A08BFF8
:1033F0005D1B2269A3680CBF25EAE5750025934291
:10340000C4BF9B1AED184FF00009A9450ADA3046EF
:10341000394604F11A020123C0470130D5D009F121
:103420000109F2E70020BDE8F88300000000000079
:103430002DE9FF410C461746227E98466E2A064625
:103440000A9B01F1430100F0B08012D8632A23D017
:103450000AD8002A00F0BD80582A40F0CC8084F8B9
:103460004520DFF804E257E0642A1ED0692A1CD008
:10347000C1E0732A00F0B18009D86F2A2ED0702ADB
:1034800040F0B980226842F0200222603FE0752AB5
:1034900024D0782A3BD0AEE01A6804F14205111D11
:1034A0001960136884F84230A9E020681A6810F0A7
:1034B000800F02D0101D186008E010F0400F02F1DC
:1034C0000400186002D0B2F9003000E01368002B4D
:1034D0003EDA2D225B4284F8432039E020681A68E6
:1034E00010F0800F02D0101D186007E010F0400FA0
:1034F00002F10400186001D0138800E01368227EF6
:10350000DFF864E16F2A0CBF08220A221CE078224F
:10351000DFF858E184F845202268186812F0800F1F
:1035200000F104051D6003D1550601D5038800E0B4
:103530000368D00744BF42F0200222601BB9226812
:1035400022F0200222601022002084F8430002E0D2
:10355000DFF814E10A226568002DA8BF2068A56085
:10356000A4BF20F00400206003B965B10D46B3FB91
:10357000F2F002FB10331EF8033005F8013D03465C
:103580000028F4D100E00D46082A0BD12368DA07A1
:1035900008D5236962689A42DEBF302305F8013CF2
:1035A00005F1FF35491B21612EE025681A6815F0E9
:1035B000800F606903D0151D1D60136808E015F0C9
:1035C000400F02F104051D60136801D0188000E06F
:1035D0001860002323610D4616E01A68111D19605A
:1035E000156800212846626800F0C2FB08B1401B44
:1035F0006060636804E004F1420584F8422001231E
:103600002361002384F84330CDF800803046214602
:1036100003AA3B46FFF794FE013002D14FF0FF3082
:103620001FE0304639462A462369C0470130F5D0AD
:1036300023689B0705D4E068039B9842B8BF1846EF
:103640000FE00025E368039A9B1A9D42F3DA3046A7
:10365000394604F119020123C0470130DED001359B
:10366000F0E704B0BDE8F081304340004143400042
:103670001F2938B504460D4604D9162303604FF0C0
:10368000FF3038BD426C12B152F821304BB92046A0
:1036900000F036F82A4601462046BDE8384000F0E2
:1036A00017B8012B0AD0591C03D11623036001203F
:1036B00038BD002442F8254028469847002038BDF0
:1036C000024B01461868FFF7D3BF00BF6408002013
:1036D00038B5074C00230546084611462360FFF71E
:1036E00067F9431C02D1236803B12B6038BD00BFCA
:1036F000A0100020000000000000000000000000FA
:10370000FFF746B9000000000000000000000000C4
:1037100030B5037823B90B78002B18BF002030BDDB
:1037200003461A7801303AB100228C5C34B19D5CBA
:10373000A542F5D10132F8E7104630BD184630BD3C
:10374000174B2DE9F0411D680646AC6D0F46FCB9DC
:10375000502000F005FBA8658460AB6D04604460F8
:103760001C61DC60AB6D9C615C61AB6DDC629C627A
:10377000AB6D5C631C63AB6DDC639C63AB6D5C64C5
:103780001C64AB6DDC649C64AB6D1C77AB6D5C62E0
:1037900030463946AA6D0123BDE8F04100F008B873
:1037A000640800200000000000000000000000008D
:1037B000F0B548B9106838B9F0BD17F8016B5EB1C3
:1037C000B542FAD12BB1204604460F4614F8015BEE
:1037D000F3E714600370F0BD4DB915602846F0BDE5
:1037E00017F8016BAE4207D0002EF9D11C462346D4
:1037F0000F4613F8015BF3E715B10021217000E0DB
:103800002B461360F0BD0000000000000000000027
:1038100070B50D461446064618B183690BB900F021
:10382000BFF9224B9C4201D1746808E0204B9C42B6
:1038300001D1B46803E01F4B9C4208BFF468A36940
:10384000A360A3891A0709D523693BB123682069BE
:10385000EDB2181A636998420FDB08E03046214642
:1038600000F02EF80028F1D04FF0FF3070BD304648
:10387000214600F01DF90028F6D1A3680130013B74
:10388000A36023685A1C22601D706369984204D0AB
:10389000A389DB0707D50A2D05D13046214600F064
:1038A00007F90028E0D1284670BD00BF6043400002
:1038B00080434000A04340000000000000000000E2
:1038C000314B70B51D6806460C4625B1AB6913B97E
:1038D000284600F065F92D4B9C4201D16C6808E048
:1038E0002B4B9C4201D1AC6803E02A4B9C4208BFA1
:1038F000EC68A3899AB211071DD4D50602D4092217
:10390000326038E0500712D5616B41B104F14403D5
:10391000994202D0304600F03BFA00236363A3894A
:1039200023F02403A3810023636023692360A38918
:1039300043F00803A38123694BB9A38903F42073DF
:10394000B3F5007F03D03046214600F0B9F9A389D2
:1039500013F0010205D00022A26062695242A26106
:1039600003E0990758BF6269A26022694AB903F06F
:10397000800080B230B143F04003A3814FF0FF30AC
:1039800070BD002070BD00BF64080020604340008F
:1039900080434000A0434000000000000000000001
:1039A0008A892DE9F041054610070C4657D44B682B
:1039B000002B02DC0B6C002B18DDE66AB6B102F4BA
:1039C0008052002392B22F682B600AB1626D10E022
:1039D000216A28460123B047411C024609D12B68C1
:1039E0003BB11D2B01D0162B46D12F600020BDE826
:1039F000F081A3895B0705D56368D21A636B0BB1AD
:103A0000236CD21AE66A00232846216AB047461C76
:103A1000A38905D12A681AB11D2A01D0162A19D105
:103A2000002262602269D904226004D5421C01D1BF
:103A30002B6803B96065616B2F600029D6D004F153
:103A40004403994202D0284600F0A2F900206063A6
:103A5000BDE8F08143F04003A381BDE8F0810F6928
:103A6000002FC3D093070E680CBF4B690023C7EB30
:103A700006080F608B6012E0A3894FF0FF3043F01F
:103A80004003A381BDE8F0812846216A3A464346B7
:103A9000A66AB0470028EFDD0744C0EB0808B8F17C
:103AA000000FF1DCA2E700000000000000000000B1
:103AB00038B50B6905460C46DBB118B183690BB903
:103AC00000F06EF80C4B9C4201D16C6808E00B4B87
:103AD0009C4201D1AC6803E0094B9C4208BFEC68F2
:103AE000B4F90C302BB128462146BDE83840FFF729
:103AF00057BF002038BD00BF6043400080434000F6
:103B0000A043400000000000000000000000000092
:103B1000014900F0B5B800BFB13A40000000000014
:103B200010B50446002303604360836081814366CF
:103B3000C28103614361836119465C300822FFF74B
:103B4000BFFA054B24626362044BA362044BE36239
:103B5000044B236310BD00BFD13E4000013F400035
:103B6000413F4000713F40000000000000000000A5
:103B700070B568234D1E5D430E4605F1740100F0DB
:103B80004FF9044640B1002180E842000C30A060AB
:103B900005F16802FFF794FA204670BD00000000AE
:103BA000836910B5044633BB8364C3640365124B59
:103BB000124A1B688262984204BF0123836100F0AD
:103BC0001FF86060204600F01BF8A060204600F05F
:103BD00017F80421E06000226068FFF7A1FFA068E9
:103BE00009210122FFF79CFFE06812210222FFF762
:103BF00097FF0123A36110BD00434000113B40002B
:103C0000F8B51B4B07461E68B36913B93046FFF77A
:103C1000C7FF4836B4687368013B04D4B4F90C504C
:103C200075B16834F8E733682BB938460421FFF7DB
:103C30009FFF306008B13668ECE70C233B60F8BDAD
:103C40004FF6FF73E3810123A38165662560A560BC
:103C5000656025616561A56104F15C002946082263
:103C6000FFF72EFA6563A563A564E5642046F8BDF9
:103C700000434000000000000000000000000000C1
:103C80002DE9F8438046894600F14804002694B1A6
:103C9000A5686768013F0CD4AB89012B07D9B5F93A
:103CA0000E30013303D040462946C84706436835E5
:103CB000F0E72468EBE73046BDE8F8830000000039
:103CC000F0B58B8991B09D0706460C4625D4B1F915
:103CD0000E10002908DAA389002513F0800F14BF05
:103CE00040274FF480670DE001AAFEF739FE002857
:103CF000F1DB029D4FF4806705F47045A5F5005196
:103D00004D424D413046394600F08AF860B9A389EA
:103D10009A051DD443F00203A38104F147032360F5
:103D200023610123636113E00A4BB362A38920601E
:103D300043F08003A381206167614DB13046B4F93F
:103D40000E10FEF71DFE18B1A38943F00103A381F5
:103D500011B0F0BD113B4000000000000000000069
:103D6000024B0146186800F05BB800BF64080020F1
:103D700010B5C9B202449042034605D01C78013008
:103D80008C42F8D1184610BD002010BD0000000084
:103D900030B500293CD051F8042C0B1F1D49002AD6
:103DA000B8BF9B180A680C4612B95A600B6030BD48
:103DB00093420DD219685818904201BF5A585218B0
:103DC0001A60426823605A6030BD994203D80A469F
:103DD00051680029F9D1146815199D420AD11B6850
:103DE0002344D0188842136012D10868034413603A
:103DF0004B680CE002D90C23036030BD1C68181915
:103E0000884201BF0868496800191860596053600A
:103E100030BD00BF9C10002000000000000000002A
:103E200070B5CC1C24F0030408340C2C38BF0C24CF
:103E3000002C064603DA0C233360002070BD8C4250
:103E4000F9D3204A136810461946A1B10A68121B1B
:103E50000ED40B2A03D90A608B188C501FE08B42BA
:103E60000BBF5A684A6802605A6018BF0B4616E0DA
:103E70000B464968E9E7144D2B681BB93046FEF73D
:103E80005FFD286030462146FEF75AFD421C03467E
:103E9000D1D0C51C25F0030585420AD11C6003F171
:103EA0000B001A1D20F00700821A0AD051429950C7
:103EB00070BD3046E91AFEF743FD0130BBD02B46FA
:103EC000ECE770BD9C10002098100020000000005E
:103ED00010B50C46B1F90E10FEF712FD0028ABBF6D
:103EE000636DA3891B1823F48053ACBF6365A38162
:103EF00010BD0000000000000000000000000000F5
:103F00002DE9F0411D468B890746DB050C46164618
:103F100005D5B1F90E1000220223FEF7F9FCA389A2
:103F2000384623F48053A381B4F90E1032462B4651
:103F3000BDE8F041FEF7F4BC000000000000000006
:103F400010B50C46B1F90E10FEF7E2FC431CA38934
:103F500015BF606523F4805343F48053A38118BFD9
:103F6000A38110BD00000000000000000000000060
:103F7000B1F90E10FEF7DCBC0000000000000000EC
:103F800069646C65000000006D61696E00000000EE
:103F9000611C4000411C4000F11B4000011C40001E
:103FA000811C4000711C4000511C4000311C40002D
:103FB000111C400000000000000000000000000094
:103FC00000C2010000280000000000000000000006
:103FD0005457495F53746172745772697465000075
:103FE0005457495F53656E6453544F50436F6E642A
:103FF0006974696F6E00000000000000000000009E
:104000005457495F436F6E6669677572654D61739A
:104010007465720000000000000000000000000055
:104020005457495F456E61626C6549740000000039
:1040300043686962694F532F6F732F68616C2F70EB
:104040006C6174666F726D732F4154393153414DF9
:1040500033532F61746D656C5F7477692E63000054
:104060007054776920213D2030000000705477693A
:10407000000000006477436B446976203C203800E0
:1040800028705477692D3E5457495F4352202620AB
:104090005457495F43525F535644495329213D20A9
:1040A0005457495F43525F53564449530000000040
:1040B0002861646472657373202620307838302953
:1040C000203D3D2030000000286961646472657302
:1040D000732026203078464630303030303029206A
:1040E0003D3D2030000000006973697A65203C2066
:1040F0003400000028736F757263657320262030CA
:1041000078464646464630383829203D3D20300026
:104110005457495F53746F700000000000000000A6
:104120005457495F5265616442797465000000002C
:104130005457495F537461727452656164000000A2
:104140005457495F5772697465427974650000007D
:10415000545749445F52656164000000000000004C
:1041600043686962694F532F6F732F68616C2F70BA
:104170006C6174666F726D732F4154393153414DC8
:1041800033532F61746D656C5F747769642E6300BF
:10419000545749445F57726974650000000000007D
:1041A000504D435F456E61626C6550657269706821
:1041B0006572616C0000000000000000000000005B
:1041C00043686962694F532F6F732F68616C2F705A
:1041D0006C6174666F726D732F4154393153414D68
:1041E00033532F706D632E630000000064774964C1
:1041F000203C2033350000000000000000000000DB
:104200000000000000000000FFFFFFFF00000000B2
:1042100000000000FFFFFFFF0000000000000000A2
:10422000FFFFFFFF00000000000000000000000092
:10423000286E756C6C290000000000000000000072
:10424000244750524D4300002C0000004C41543D87
:10425000000000003B000000434C41543D000000C2
:104260004C4F4E3D00000000434C4F4E3D000000BF
:1042700053503D0056414C3D000000004D50553D0F
:1042800000000000253064000D0A0000000000005E
:1042900008000000000E0E400B000000100000009F
:1042A000000E0E400B0000000000000000000000A7
:1042B0002C2066756E6374696F6E3A2000617373AB
:1042C000657274696F6E2022257322206661696CA5
:1042D00065643A2066696C6520222573222C206C67
:1042E000696E65202564257325730A0000000000AF
:1042F000430000000000000000000000000000007B
:104300000408002000000000000000000000000081
:10431000232D302B2000686C4C00656667454647AE
:10432000000000000000000000000000000000008D
:1043300030313233343536373839414243444546DB
:104340000030313233343536373839616263646571
:1043500066000000000000000000000000000000F7
:10436000000000000000000000000000000000004D
:10437000000000000000000000000000000000003D
:10438000000000000000000000000000000000002D
:10439000000000000000000000000000000000001D
:1043A000000000000000000000000000000000000D
:1043B00000000000000000000000000000000000FD
:1043C00008B10181B0B000840000000008B1018193
:0843D000B0B000840000000001
:1043D800F8BCFF7FB0A8018050BDFF7F010000003E
:1043E80000BEFF7FB0A902809CBEFF7FB0B0A8804E
:1043F800ECBEFF7F01000000F8BEFF7FB0B0AA80CE
:1044080030BFFF7FAE71B28000C0FF7F01000000A7
:10441800FCBFFF7FAB3F388054C0FF7F0100000026
:1044280060C0FF7FB0B0AA809CC0FF7F0100000081
:1044380058C1FF7FAB0EB280C0C1FF7FB0AF0A800A
:104448008CC4FF7F0100000090C4FF7FAB3F048055
:104458002CC7FF7F0100000018C9FF7F008404807B
:104468002CC9FF7F0100000028C9FF7FB0AD048080
:10447800ECCBFF7FB0A803800CCCFF7F3CFFFF7F15
:1044880010CCFF7F40FFFF7F1CCCFF7F01000000A6
:10449800E8E8FF7FB0A8298070EAFF7FB0B0AA8063
:1044A80098EAFF7FB0B0A880F0EAFF7FB0AA058045
:1044B80028EBFF7FB0AA038058EBFF7F01000000C4
:1044C800006CDC02000000006043400080434000B4
:1044D800A0434000000000000000000000000000B1
:1044E80000000000F0424000000000000000000052
:1044F80000000000000000000000000000000000B4
:1045080000000000000000000000000000000000A3
:104518000000000000000000000000000000000093
:0845280000000000040800205F
:04000005004000D0E7
:00000001FF
