:020000040040BA
:1000000000800020E1104000F0114000F01140009D
:10001000F0114000F0114000F0114000F0114000DC
:10002000F0114000F0114000F011400011124000AA
:10003000F0114000F0114000F0114000F1124000BA
:10004000F0114000F0114000F0114000F0114000AC
:10005000F0114000F0114000F0114000F01140009C
:100060001121400031214000F0114000F01140000A
:10007000F0114000F0114000F0114000F01140007C
:10008000F0114000F0114000F0114000F01140006C
:10009000F0114000F0114000F0114000F01140005C
:1000A000F0114000F0114000F0114000F01140004C
:1000B000F0114000F0114000F0114000F01140003C
:1000C000F0114000F0114000F0114000F01140002C
:1000D00010B501F07DFD01F07BF91248002101F01F
:1000E000FFFD114C642001F06BFB4FF0FF310F4816
:1000F00001F01EFC4FF0FF310C4801F019FCC3B2B7
:10010000312B4FF0FF3109484FF4003301D1236305
:10011000E8E701F00DFCC0B23228E3D14FF4003320
:100120006363DFE73C0A002000120E404C0A002007
:1001300003685A004CBF43F0004323F000431844C7
:10014000704700BF2DE9F04F83B099B34B1E17469F
:10015000054698460193002606EB080404EBD47488
:1001600064104FEAC40A05EB0A0B5846FFF7E0FF9C
:10017000019B8146A3420AF1080028440ED0FFF7F4
:10018000D7FFB94500F1FF3004D9B4420CD004F1D7
:10019000FF38E1E7B84203D2661CDDE7B945F4D881
:1001A000584603B0BDE8F08F4FF0000B584603B03F
:1001B000BDE8F08F8B46584603B0BDE8F08F00BF16
:1001C000012807D0022807D0044B00280CBF18468E
:1001D000002070470248704702487047D508400029
:1001E000D9084000DD08400030B5254B83B00446F7
:1001F0008D1E7BB3284601A9AFF3008020B301997F
:100200002A46FFF79FFF0546F0B1FFF791FF6B68A5
:10021000A064012B12D0002B05F1040021DBFFF7B5
:1002200087FF0023E06423650368002B1DDBFFF7D5
:100230007FFF00232061184603B030BD00232361F7
:100240000523184603B030BD002323610923184657
:1002500003B030BD0B490C4B0846591AC910019127
:10026000CEE70123E0642365DEE7C3F30360FFF715
:10027000A7FF002820610CBF09230023DBE700BF94
:10028000000000009824400058254000036810B585
:10029000DA07044606D49B0700F1480009D500F0B0
:1002A0008BFC2368590709D51A070ED5DB0613D531
:1002B00010BD00F079FC23685907F5D404F1D00093
:1002C00000F082FC23681A07F0D404F5A87000F04F
:1002D00083FC2368DB06EBD404F5E870BDE810402E
:1002E00000F0BEBC03680BB1184470471846704755
:1002F00009207047704700BF70B504460D4608E0FE
:100300002A6C23696261012021462A469847082801
:1003100008D12046296CFFF767FF06460028EFD07A
:1003200001F0CEFF0728FBD13046296CFFF7E2FF32
:10033000281D00F02DFC00BF2DE9F0470646ADF565
:10034000727D03AD0C1D17460FCC0FC50FCC0FC52A
:100350000FCC0FC594E80F0002AC4FF0000ED6F89A
:100360000C80D6F8189085E80F003046216CC4F850
:1003700000E0FFF739FF0546002F0CBF09270A27C9
:100380007DB1A36B47F010018DE81002012063647A
:1003900032463346C04778BB28460DF5727DBDE82E
:1003A000F087236C214673614FF4F0727AA801F054
:1003B0008FFF336931467AAA38469847889B824630
:1003C0008DE8100239466364012032463346C04747
:1003D00090B920467AA94FF4F07201F079FFBAF192
:1003E000080F06D13046216CFFF7FEFE09270546AF
:1003F000C6E7BAF1070F04D009200DF5727DBDE8FC
:10040000F0872846216CFFF775FF03A800F0C0FBBA
:10041000406C7047F0B5CB6BF9B00B640E1D01ADAD
:100420000F4604460FCE0FC50FCE0FC50FCE0FC51A
:1004300096E80F004FF0FF3685E80F00009606E0C3
:10044000236921466A4698470828054608D1204670
:100450001099FFF7C9FE0028F2D0092079B0F0BD4D
:100460006846FFF713FF062DF7D120463946FFF700
:1004700043FF00BF30B4DD6BC160826119461D646B
:10048000002230BC58E700BF70B54369C668044617
:100490000D460B6426B10122FFF74EFF01F010FF5D
:1004A0000369214602202A469847072807D00828D2
:1004B00003D120462946FFF71FFF01F001FF304618
:1004C000296CFFF717FF281D00F062FBC26832B1EC
:1004D00010B4CC6B00220C645DF8044B2CE799E758
:1004E000704700BF836813B1014601201847704769
:1004F00000B5042907D8DFE801F00309060909005F
:100500000BB90F2A05D902205DF804FB01205DF824
:1005100004FB00EB820252681846019B1A605DF8EA
:1005200004FB00BF00B585B00A4603AB0021009371
:100530000B46FFF7DDFF039805B05DF804FB00BF35
:1005400000B5042907D8DFE801F00309060909000E
:100550000BB90F2A05D902205DF804FB01205DF8D4
:1005600004FB019900EB82020968184651605DF8AE
:1005700004FB00BF10B50C4684B004AB43F8042D57
:100580000021009322460B46FFF7DAFF04B010BDAE
:10059000F0B5D36BADF50F7D1364151D17AC074691
:1005A0000E460FCD0FC40FCD0FC40FCD0FC495E86D
:1005B0000F004FF0FF3584E80F00169511E016A8E4
:1005C0006A46FFF7D7FF16A83146B84780B9049BA3
:1005D0000820694616AA98470528044609D0092824
:1005E00006D026996846FFF7FFFD0C210028E6D0CB
:1005F000092416A8FFF74AFE20460DF50F7DF0BD31
:100600002DE9F04FCC6C904622688BB004340D4637
:100610000792089400F003091E46002B64D11202D1
:10062000032307928DF825608DF824302B6DB9F1E6
:10063000020F08BFAC6B13F0010343D100F00800B8
:10064000C2B2039201932768002F3DD0022E47D0FB
:100650002788B4F802A00434AB6C2AF0010B4046A2
:100660000F219B44FFF75EFF834537D827F0010336
:100670009B4458452CBF002001200AF0010A07F0D6
:10068000010747EA4A0ABAF1010F43D03AD3BAF157
:10069000020F1FD1236823F000420292B9F1000F2C
:1006A0007BD138B1039A002A00F08380029A002A95
:1006B00000F0A680002B7ADB029B03F1010A04EB19
:1006C0008A04C0E700230193022E40DDFFF710FEED
:1006D000002842D009200BB0BDE8F08F0020CCE705
:1006E000D4F804A00834B7E7022B9FDC130CDFB268
:1006F000120402218DF8253004EB870407928DF84F
:10070000241093E7B9F1000F02D0002840F0AD802B
:10071000043498E7B9F1000F26D1B0B194E80C0089
:10072000D70F9A1CD6D005F158020133069200F07B
:100730009280201DFFF7D6FD3A46014606AB2846BB
:10074000AFF30080002840F0B58008347BE74046D6
:1007500007A900F021FB0028BCD1019B002B59D137
:1007600008200BB0BDE8F08F40460D212F6AFFF73F
:10077000D9FE8742E9D1AB6A9C42E6D12046FFF719
:10078000D7FC0F2102464046FFF7F4FE40462A46BA
:100790000021FFF7EFFE07209DE740460D212F6A5D
:1007A000FFF7C0FE874245D02368002B84DA04346B
:1007B00082E7029B23B305F158030596039F04F1DA
:1007C000040ADDF808B0CDF810901E4602E0D945C5
:1007D0004F4615D050460696FFF784FD002201468D
:1007E00006AB2846AFF3008007F101090AF1040ABD
:1007F0000028ECD0029BDDF810909F42059ED3D1DB
:1008000040460D21FFF78EFE069B2862AC626B62AC
:10081000062060E70F214046FFF784FE0E210246C6
:100820004046FFF7A7FE40460F21294AFFF7A2FEE8
:10083000072050E7AB6A9C42B6D1042202990027F8
:10084000A318A962EF622A636B632368BB421FDBB4
:100850000123019330E740460D21FFF763FE286234
:10086000069B6B62AC62062035E72046FFF760FC12
:1008700004340646AC632846AFF3008000283FF4FA
:1008800029AF404632460F21FFF774FE072022E7CA
:100890000846013004EB8000FFF74AFC0F210246B6
:1008A0004046FFF767FE404639462A46FFF762FE9C
:1008B000072010E707460D214046FFF733FE022FC1
:1008C0002862CDD12B46069A43F82C2F6B62C9E7DC
:1008D00000000000002393E6012391E602238FE647
:1008E000F0B50546C5B004290CD8DFE801F0560381
:1008F0000B300E00012B4FEA124496B265D0052B47
:1009000000F08380022045B0F0BD002BFAD1102A00
:10091000F8D82B68DC0600F1E98022AE304601925F
:1009200000F0A8F9A86B019A0023012404FA03F14E
:10093000114203D00168043046F823100133042B20
:10094000F4D1A863304600F08BF90020DBE7032BDD
:10095000D8D1140C97B23B19102BD3D82B681E0793
:1009600000F1E48022AE30467F0000F057F906EB3C
:10097000C4027B1EAC6B57B12146043A51F8040BFC
:10098000013B42F8040F581CF8D104EB87043046B1
:10099000AC6300F021F90020B5E7002BB2D1AC6BBD
:1009A00097B2281D012606FA03F1394203F101032B
:1009B00002D0216804340160102B00F10400F2D150
:1009C00012F400501FD1AC639DE73219102A99D858
:1009D0000F2C97D829680027C80754D422A8019360
:1009E00000F0E6F8019B19E008463746012B00F0BD
:1009F00097800F2CA86302D822A800F0DDF817B169
:100A000002A800F0E1F800207DE73719202F3FF61B
:100A100079AF0F2C30D93746002E44D1A96B32461E
:100A2000002EE1D000278E4644A84FEA420C00EB8E
:100A3000C4000CF1FF328C385EF8046B013A40F8C8
:100A4000046F561CF8D101EB8C00002FCED022464B
:100A5000102C44A938BF102201EBC202A2F5C472C7
:100A600001467800043A01EB800051F8046B8142A2
:100A700042F8046FF9D1B9E7102F41D92A68103F25
:100A8000D007114610D521F00102052B2A600193F1
:100A900028465BD021F0030140F8481B00F088F89D
:100AA000019B002F4AD02A6851075BD4012B63D0E9
:100AB0000F2C04D822A8019300F082F8019B002F8C
:100AC000ACD002A8019300F083F8019BC4F110029E
:100AD000002AA96BA7DC2246102C44A838BF10229C
:100AE00000EBC202A2F5C4727800BBE723F010034A
:100AF0002B6005F5E870019200F0BCF8019A0CE754
:100B00002968C8071DD5284621F0010242F00202DB
:100B100040F8482B0193002700F052F8019BC9E7E9
:100B20000430A86322A800F03FF86CE723F0080324
:100B30002B6005F5A87000F071F813E7012B3FF466
:100B40004DAF0F2C98BF0027B4D967E742F00202DF
:100B500040F8482B00F034F8019B002FAAD02A68F7
:100B60005107A5D5284622F0040240F8D02B019366
:100B700000F02EF8019B99E722A8019300F018F8E5
:100B8000019BA3E70000000000000000000000003F
:100B900000F1340191E838009C46A6464CF8045D0B
:100BA00090E8FF0FE54600BD90EC210B704700BFB9
:100BB00080EC210B704700BF90EC200B704700BF0A
:100BC00080EC200B704700BFD0EC200B704700BFBB
:100BD000C0EC200B704700BFF0EC0201F0EC0211FA
:100BE000F0EC0221F0EC0231F0EC0241F0EC0251A9
:100BF000F0EC0261F0EC0271F0EC0281F0EC029199
:100C0000F0EC02A1F0EC02B1F0EC02C1F0EC02D188
:100C1000F0EC02E1F0EC02F1704700BFE0EC020101
:100C2000E0EC0211E0EC0221E0EC0231E0EC0241E8
:100C3000E0EC0251E0EC0261E0EC0271E0EC0281D8
:100C4000E0EC0291E0EC02A1E0EC02B1E0EC02C1C8
:100C5000E0EC02D1E0EC02E1E0EC02F1704700BF11
:100C6000B0FC0181B0FC0191B0FC01A1B0FC01B16C
:100C7000704700BFA0FC0181A0FC0191A0FC01A174
:100C8000A0FC01B1704700BFEC4600B52DE9005053
:100C90002DE9FF1F4FF000032DE90C0001A9FFF71C
:100CA000B9FBDDF840E012B0704700BFEC4600B57C
:100CB0002DE900502DE9FF1F4FF000032DE90C0036
:100CC00001A9FFF7E1FBDDF840E012B0704700BF7B
:100CD000EC4600B52DE900502DE9FF1F4FF0000351
:100CE0002DE90C0001A9FFF7F1FBDDF840E012B09F
:100CF000704700BFEC4600B52DE900502DE9FF1FFD
:100D00004FF000032DE90C0001ABFFF7B3FBDDF85A
:100D100040E012B0704700BFEC4600B52DE900502E
:100D20002DE9FF1F4FF000032DE90C0001AAFFF78A
:100D30002FFCDDF840E012B0704700BF000000005B
:100D4000037A1BB9437A43B9B02070475A1E03682F
:100D500002721A020260180E70474268013B10B41A
:100D6000437213680321141D01721A024460026069
:100D70005DF8044B180E704700B585B003AB002139
:100D800000930C220B46FFF7B3FB039805B05DF808
:100D900004FB00BFF0E700BF2DE9F04306460D4617
:100DA00085B04FF000082846FFF7CAFFB028044678
:100DB00000F0B58020F07F0111F0FF0120D000F09D
:100DC000F003802B7AD0902B36D0A02B49D0B02BBB
:100DD0005CD0C02B00F0898000F0F803D02B0BD141
:100DE00000F00702013242F40022304601210523BF
:100DF000FFF776FD0028D6D0092005B0BDE8F083C6
:100E00000DF10C090B468700CDF8009030460D22FD
:100E1000FFF76EFBFFB2039B043760064FF0000143
:100E20004CBFDF1BFF18CDF800900B4630460D225B
:100E30000397FFF785FBB6E700F00D030D2BDBD022
:100E400003AF002100F00F020B4600973046FFF77A
:100E50004FFB002100970B4630460D22FFF770FB39
:100E6000A1E7C3434FF47F6203F007031A41010770
:100E700002F47F624FF0000148BF42F480420B460B
:100E80003046FFF72DFD0028B6D18CE7B1284CD0B5
:100E9000B2285DD0B32800F08A8000F0FC03B42BA8
:100EA000AAD000F007020132012142F400220B46D1
:100EB0003046FFF715FD00289ED174E72846FFF75E
:100EC0003FFF24022043B0F5004F95D004010021DC
:100ED000A2B20B463046FFF703FD00288CD114F474
:100EE000004F18BF4FF001085DE7C62872D0C72831
:100EF0007AD000F0F803C02B00F08980C82800F0F9
:100F0000A580C9287FF478AF2846FFF719FF00F0C5
:100F10000F02013200F0F00042EA003265E7B8F15A
:100F2000000F00F08280002067E72846FFF708FFE7
:100F3000024600283FF460AF10F0F0017FF45CAF90
:100F400030460B46FFF7CCFC00287FF455AF2AE76C
:100F500000210DF10C090D220B46CDF80090304612
:100F6000FFF7C6FA2846FFF7EBFE02064FF0020431
:100F70000CD5039B00F07F00A04003442846039358
:100F8000FFF7DEFE030604F10704F2D4039B00F032
:100F90007F00A04003F5017300211C18CDF80090DC
:100FA0000B4630460D220394FFF7CAFAFBE62846AB
:100FB000FFF7C6FE00F00F02013200F0F000012141
:100FC00042EA00320B463046FFF78AFC00287FF4E5
:100FD00013AFE8E62846FFF7B3FE00F00F02013238
:100FE00000F0F0000321EBE72846FFF7A9FE0246D8
:100FF00000283FF401AF10F0F0037FF4FDAE30465F
:101000000421FFF76DFC00287FF4F6AECBE600F07C
:101010000F020132032142F420220B463046FFF733
:101020005FFC00287FF4E8AEBDE603AC41460E222B
:10103000434600943046FFF75BFA00943046414641
:101040000F224346FFF77CFA4046D6E62846FFF7D4
:1010500077FE00F0F00200F00F031032013343EA94
:101060000232C2E610B5C36C84B003205A688DF812
:101070000C00DC7912020833084601A901928DF8B0
:101080000D400293FFF788FE04B010BD08B5FFF7CE
:1010900081FE806C08BD00BF08B5FFF77BFEC36C06
:1010A000D87903EB8000083008BD00BF08B501F017
:1010B00007F900BF08B501F003F900BF0000000008
:1010C000704700BF000000000000000000000000AA
:1010D000FEE700BF0000000000000000000000006C
:1010E00072B6334C84F30988022383F31488BFF368
:1010F0006F8F01F0B5F82F492F4A91420CD2C843A7
:10110000024422F0030204320B460A444FF05531E8
:1011100043F8041B9342FBD12849A1420DD2284A2F
:10112000081D121A22F0030204320B460A444FF043
:10113000553143F8041B9342FBD1224A224B9A4279
:101140000DD2D043214918440B4620F0030004304F
:10115000084453F8041B834242F8041BF9D11C498C
:101160001C4A91420BD2C843024422F003020432CB
:101170000B460A44002143F8041B9342FBD1164D51
:10118000164CFFF79DFFAC4204D254F8043B98473D
:10119000AC42FAD3124D134CFEF79AFFAC4204D284
:1011A00054F8043B9847AC42FAD3FFF791FF00BFD5
:1011B000000800200000002000040020000400209F
:1011C000030800200008002068080020582540007F
:1011D00068080020B40A0020D0004000D000400081
:1011E000D0004000D00040000000000000000000DF
:1011F000FEE700BF0000000000000000000000004B
:1012000000F04EFA00DF00BF000000000000000008
:10121000EFF30983203383F30988002383F31188D4
:10122000704700BF00000000000000000000000048
:1012300008B50A4A0A4B002199600720DA6010219C
:1012400000F09EF80A204FF4007100F099F8BDE814
:1012500008400B20802100F093B800BF0000FA0581
:1012600000ED00E0000000000000000000000000B1
:10127000202383F31188174B5B6813F4006319D0A4
:10128000EFF30983A3F1200282F30988124A4FF099
:101290008070916943F8040C106871B1D16982685B
:1012A00089688A4294BF002201227AB10B4A43F82E
:1012B000082C704783F311887047D1698268896868
:1012C0008A4234BF00220122002AEFD1044A43F8A7
:1012D000082C704700ED00E080090020011240005A
:1012E00004124000000000000000000000000000A8
:1012F00008B5202383F3118800F09AF8002383F3C4
:101300001188BDE80840FFF7B3BF00BF0000000030
:101310002DE9F04FC1F80CD0D0F80CD0BDE8F08F1B
:10132000002383F311882846A04700F079FA70471C
:1013300020F0030202F1604270B402F5614200F055
:101340000304D2F80053E4004309FF26A6409B00A3
:10135000A14025EA0605012403F1604300F01F00C7
:1013600004FA00F0294303F56143C2F8001370BC8E
:10137000C3F8800118607047000000000000000002
:1013800020F0030303F1604303F56D4300F0030015
:1013900010B4C0009A69FF24844022EA040281400C
:1013A000114399615DF8044B704700BF00000000D5
:1013B000024B034ADB699A61FEE700BF8009002007
:1013C000902340000000000000000000000000002A
:1013D00000B583B0FFF72CFF00F0CAF800F050F81A
:1013E00000F0AEFB00F0E4FB40210B4800F080F978
:1013F0000A490122C8610023027783F3118862B68B
:101400000748C96988610093C021064B064800F06F
:1014100097F903B05DF804FB6808002080090020FC
:1014200098234000B1134000B008002000000000E5
:10143000114A38B59369D169002BC4BF03F1FF335A
:1014400093610A6A0D4C01320A62E2682368013234
:10145000A342E2600ED09D68013D9D6055B91A68B7
:10146000D9681869DD6022605460884723689A68EB
:10147000002AF4D038BD00BF800900207009002088
:10148000044B4FF0FF3100225B601B609960DA6013
:10149000704700BF7009002000000000000000003D
:1014A00010B40D4C03612368C2609A68914204D95C
:1014B0001B68891A9A688A42FAD35A68A342036061
:1014C000426058601060816002D09A68511A996039
:1014D0005DF8044B704700BF700900200000000059
:1014E000074A0368934203D0996882680A449A6065
:1014F00042680021136003685A60C160704700BFF2
:101500007009002000000000000000000000000042
:10151000037F10B40D2B11D8DFE803F02010100763
:10152000100B101010101010100B426A936801334A
:10153000936090E80C001A60026853604FF0FF342B
:1015400000228168074B446202771B689A688A42CE
:10155000FBD25A6803604260586010605DF8044B2B
:10156000704700BF8009002000000000000000005C
:10157000044B002114225B601B605B611B6199605E
:101580009A61704780090020000000000000000000
:1015900010B4044600228168074B02771B689A68E2
:1015A0008A42FBD25A682046236062605C60146005
:1015B0005DF8044B704700BF800900200000000068
:1015C000084B70B41A68D969146814260125087785
:1015D0009E616360DA6115771C60104670BCFFF78E
:1015E00097BE00BF8009002000000000000000003E
:1015F00030B54B1C87B012D005460C4C01A8E369EE
:101600000B4AFFF74DFF2846FFF7DAFF049B13B1A3
:1016100001A8FFF765FFE369586A07B030BDFFF71F
:10162000CFFF024CE369586A07B030BD8009002043
:101630001115400000000000000000000000000044
:10164000154BF0B4DE69846805464162B068844297
:101650000CD800222A771B689A689442FBD95A68F2
:101660002B606A605D601560F0BC70471A4600210F
:101670003177126891688842FBD95468012786E85F
:10168000140056602660DD612F7731462846F0BC95
:1016900014229A61FFF73CBE800900200000000080
:1016A000104AF0B51068D46905684FF0140E012790
:1016B0000026A1680346C2F818E015606A60D06190
:1016C0000777267700E01B689A688A42FBD25A683F
:1016D0002146236062605C601460BDE8F040FFF763
:1016E00017BE00BF800900200000000000000000BD
:1016F000F0B50F4C0022666900F12C054FF0020C8A
:101700004FF0010E00F12807466181600461016419
:10171000606180F81CC080F81EE04277C26382637B
:1017200002628261306187620563C562F0BD00BFFD
:101730008009002000000000000000000000000000
:101740002DE9F84F1E4696460446202383F3118860
:10175000194B243947185A69DFF860B0C760465002
:101760000A99002500F12C0600F128084FF0020A22
:101770004FF001097960C7F820B029460361C0F82D
:1017800008E04261C0F840E0586180F81CA080F891
:101790001E904577C5638563056285611061C0F859
:1017A00028800663C662FFF74BFF2B4683F3118840
:1017B0002046BDE8F88F00BF8009002021134000BB
:1017C00008B50146202383F311880620FFF710FF98
:1017D000002383F3118808BD000000000000000012
:1017E00038B50E4BDC69254655F8283F6062AB42A0
:1017F00007D01A681846A262FFF7CAFEA36AAB4276
:10180000F7D1637F9B0704D1226963691A6122695A
:1018100053610E20BDE83840FFF7D2BE800900209A
:10182000202383F31188FFF7DBBF00BF0000000017
:101830000023406000608360704700BF000000002C
:1018400008B5836B027F1943082A81630BD0092AEC
:1018500000D008BD436A19408B42FAD1FFF798FEC9
:101860000023436208BD436A1942F7D108BD00BF97
:1018700070B504680546A0420E4607D0A1686068AE
:101880003143FFF7DDFF2468A542F7D170BD00BFEB
:1018900071B10246084B10B4DB690D205A625468DE
:1018A00083E81400536023605DF8044BFFF7A0BE8B
:1018B0004FF0FF30704700BF80090020000000009B
:1018C00010B40A44002484600261406000604161F9
:1018D0008161C160C3615DF8044B70470000000086
:1018E000034640699A6910B590429A6818D001324F
:1018F000441C5C619A6001701A69596918689142C8
:1019000024BFDA685A61984208D002681A605360AE
:10191000FFF73EFE00234362184610BD002010BDB5
:10192000002AE4D06FF0030010BD00BF00000000EB
:1019300070B520230E46044683F31188C3693BB17A
:10194000984705E020463146FFF7A2FF002813DB49
:10195000A568002DF6D0A2692169531C8B42A361B2
:1019600005F1FF3528BFE368A560107828BFA361A3
:10197000002383F3118870BD2B4683F3118870BD5B
:101980002DE9F0471E46044689469246D0F81C8051
:10199000202383F311880027B8F1000F07D02046D9
:1019A000C04704E020463146FFF772FFD0B9A56872
:1019B000002DF7D0A369013D5A1CA261A5601B78D8
:1019C00009F8013B2369A2699A4224BFE368A36135
:1019D000002383F311880137BA4506D0202383F30F
:1019E0001188D9E72B4683F311883846BDE8F08784
:1019F00010B48C18046140600060826041618161B4
:101A0000C160C3615DF8044B704700BF0000000077
:101A1000F8B504460F461646202383F3118805E0E7
:101A200020463146FFF734FF002817DBA568002D5C
:101A3000F6D06369013D5A1C6261A5601F7023697D
:101A400062699A4224BFE3686361E3690BB120468F
:101A50009847002383F311881846F8BD2B4683F37B
:101A60001188F8BD00000000000000000000000028
:101A700038B5826943699342836818D00569013398
:101A8000511CA94283608161147828BFC368026831
:101A900028BF8361824208D003461168104619604E
:101AA0004B60FFF775FD00234362204638BD002BD5
:101AB000E4D06FF0020038BD00000000000000001C
:101AC0002DE9F84F9A4604460E461746D0F81C906A
:101AD000202383F311884FF00008A56806F1010B5D
:101AE0006A1E0DB36369A2605A1C626132781A7073
:101AF000236962699A4224BFE3686361B9F1000F08
:101B000001D02046C847002383F31188013F08F124
:101B1000010812D0202383F311885E46A56806F1E0
:101B2000010B6A1E002DDDD120465146FFF7B0FEA5
:101B30000028D2D02B4683F311884046BDE8F88FA9
:101B4000054A064B0648074922F0070223F007031F
:101B500002600B60704700BFBB0A002000800020BD
:101B6000A4090020A00900200000000000000000DF
:101B700010B4202383F31188094C0A4B226819689A
:101B8000C31D23F00703891A8B429DBF9B18236056
:101B900010460020002383F311885DF8044B704742
:101BA000A4090020A009002000000000000000009F
:101BB000044B0549002203F1100019609A60DA60B5
:101BC000FFF736BEA8090020711B4000000000008E
:101BD00008B500F0BDF8044800F0B2F900F058F87C
:101BE000BDE8084000F044BBE023400000000000D6
:101BF000806BB0FA80F04009704700BF0000000021
:101C00008069B0FA80F04009704700BF0000000012
:101C10000246202383F31188002180680B469160DF
:101C200083F31188704700BF00000000000000002F
:101C30001030FFF7A5BE00BF00000000000000004C
:101C400010304FF0FF33FFF79BBE00BF00000000D5
:101C50003030FFF735BF00BF00000000000000007B
:101C600030304FF0FF33FFF72BBF00BF0000000004
:101C70001030FFF75DBE00BF000000000000000054
:101C80003030FFF7C5BE00BF0000000000000000BC
:101C900000F05EBA0000000000000000000000003C
:101CA00070B5044615460D4A002640F8042B012263
:101CB0000B466060227304F1100004F15001A6602D
:101CC0001022FFF7FDFD2B4604F1300004F1600106
:101CD0001022BDE87040FFF78BBE00BFA02340007C
:101CE00010B52023044683F3118800F061FA022323
:101CF0002373002383F3118810BD00BF0000000090
:101D000038B5836904460D463BB1294604F11000FD
:101D1000FFF7E6FD00280FDB38BD8268194642F068
:101D2000040282600430FFF7A3FD294604F110008D
:101D3000FFF7D6FD0028EFDAA368201D43F08003EB
:101D4000A3600021BDE83840FFF792BD000000000D
:101D500008B500F025F80B200821FFF711FB074B11
:101D600007491B68074AA1FB03139B09013B00209D
:101D7000072153609060116008BD00BF000800207B
:101D8000D34D621010E000E00000000000000000F1
:101D900000F086B800000000000000000000000015
:101DA000354910B40B6B03F00303022B3ED0032B19
:101DB0002BD0012B17D0314B31485B691A064CBF31
:101DC0004FF400434FF4FA4303602B490A6BC2F30C
:101DD0000212072A22D00A6B5DF8044BC2F30212EA
:101DE000D340036070470B6A254813F0807338D1E5
:101DF000244C04600A6AC2F30112022A31D0032A79
:101E00002DD0012A33D02346DFE71D4800231A498D
:101E100003600A6BC2F30212072ADCD11A4A5DF88A
:101E2000044BA2FB03235B08036070470B6ADB01D2
:101E30001AD41348134A02600B6AC3F30113012B2F
:101E400018D01249022B08BF0A460B4B996A9B6AAD
:101E5000C1F30A4101FB0222DBB2B2FBF3F30360E0
:101E6000B3E70A4B0360B0E7084A0548EDE7084BC3
:101E70000360AAE7064AE8E700040E4010140E408B
:101E80000008002000093D00ABAAAAAA001BB70069
:101E900000127A00000000000000000000000000B6
:101EA0001D4B30B41A461D4C1D481E494FF4007599
:101EB0002560C3F8E4001962936E9B03FCD51649B4
:101EC0008B6E154ADD07FBD51146174B93628B6E5F
:101ED000114A9C07FBD51146136B23F0700343F0A6
:101EE000200313638B6E0C4A1807FBD5114622237F
:101EF00013638B6E084A1B07FBD50C480C4B00255F
:101F00004FF4E0544FF4004115601461C2F8E4004E
:101F100030BC5960704700BF00040E40000A0E40FC
:101F200000434D500908370101860F2001434D50F1
:101F300050140E40000000000000000000000000EF
:101F400070B4284B284C294A0121C3F8E440196198
:101F5000C3F8E4208168264ACC434FF0FF33516632
:101F60001466136001680024916345682149EE43BB
:101F70001561566153625364536514675467C2F820
:101F8000A0304569EE434D660E660B60C5688D63F3
:101F90000569EE430D614E614B624B644B650C6706
:101FA0004C67C1F8A030016ACD43C2F86414C2F88E
:101FB0006054C2F800348169C2F83814C169C8435A
:101FC000C2F81014C2F81404C2F82434C2F844341D
:101FD000C2F85434C2F87044C2F87444C2F8A03451
:101FE00070BC704700040E4000434D5001434D50FB
:101FF000000E0E4000100E40000000000000000027
:1020000002F01F02072A08D8DFE802F010080D10BE
:10201000070D0904416601610165704701630166AE
:1020200001614165704701664161704741664161E8
:10203000704700BF0000000000000000000000002A
:10204000014B02229A60704700060E40000000001B
:10205000014B02229A60704700080E400000000009
:1020600070B5056F06466C69E10726D42B699B079E
:1020700001D5A0072CD414F0E0041DD0A4B214F0B4
:10208000200F0CBF00228022210648BF42F0200210
:10209000630648BF42F04002202383F31188B368EF
:1020A000301D1A43B2600021FFF7E2FB002383F3E7
:1020B00011884FF480732B6070BD202383F3118847
:1020C000A969C9B2FFF71CFE002383F31188CDE78D
:1020D000202383F3118806F13000FFF7C9FC0028A4
:1020E00004DBE861002383F31188C4E7B368301D83
:1020F00043F00803B3600021FFF7BAFB0223EB6053
:10210000F0E700BF00000000000000000000000039
:1021100008B50348FFF7A4FFBDE80840FFF7A8B8DB
:10212000C8090020000000000000000000000000BE
:1021300008B50348FFF794FFBDE80840FFF798B8DB
:102140003C0A002000000000000000000000000029
:1021500070B50D4D002128460C4AFFF7A1FD0C4C2F
:102160000C4B4FF4C0620C4E5A6000211A66204698
:102170000A4A2E67FFF794FD094B0A490C22216792
:102180005A601A6670BD00BFC80900204120400097
:102190003C0A0020000E0E4000060E405120400078
:1021A00000100E4000080E4000000000000000007B
:1021B00070B5037B204D0446002918BF0D46012B46
:1021C00016D0246FFFF7ECFD1C4A2B6812681B0128
:1021D000B2FBF3F368684FF0FF364FF48675502179
:1021E000E322E6602560236260602160A26070BD2A
:1021F000134B984211D0134B9842E2D1124B134823
:10220000134A4FF40071C3F8E40019610920C0219A
:10221000C3F8E420FFF78CF8D3E70B4B0B480C4ACC
:102220004FF48071C3F8E40019610820C021C3F89D
:10223000E420FFF77DF8C4E7D02340000008002029
:10224000C80900203C0A002000040E4000434D5005
:1022500001434D500000000000000000000000009D
:10226000024B4FF400425A60FFF792BD50140E40EB
:1022700008B5062204484FF40031FFF7C1FE034BB6
:102280004FF400321A6308BD00120E40000E0E40DB
:102290000020704700000000000000000000000067
:1022A000FEE700BF0000000000000000000000008A
:1022B0004FF0FF30704700BF00000000000000003A
:1022C00008B5062000F03CF80120FFF7E9FF000008
:1022D00010B5431E0A44914204D011F8014B03F893
:1022E000014FF8E710BD00000000000000000000F2
:1022F0001F2938B504460D4604D9162303604FF054
:10230000FF3038BD426C12B152F821304BB9204633
:1023100000F036F82A4601462046BDE8384000F075
:1023200017B8012B0AD0591C03D1162303600120D2
:1023300038BD002442F8254028469847002038BD83
:10234000024B01461868FFF7D3BF00BF64080020A6
:1023500038B5074C00230546084611462360FFF7B1
:10236000A7FF431C02D1236803B12B6038BD00BF17
:10237000B00A002000000000000000000000000083
:10238000FFF786BF00000000000000000000000012
:1023900069646C65000000006D61696E00000000FA
:1023A000611C4000411C4000F11B4000011C40002A
:1023B000811C4000711C4000511C4000311C400039
:1023C000111C4000000000000000000000000000A0
:1023D00000C2010000280000000000000000000012
:1023E0000000000000000000FFFFFFFF00000000F1
:1023F00000000000FFFFFFFF0000000000000000E1
:10240000FFFFFFFF000000000000000000000000D0
:102410004300000000000000000000000000000079
:1024200000000000000000000000000000000000AC
:10243000000000000000000000000000000000009C
:10244000000000000000000000000000000000008C
:10245000000000000000000000000000000000007C
:10246000000000000000000000000000000000006C
:10247000000000000000000000000000000000005C
:1024800008B10181B0B000840000000008B10181F2
:08249000B0B000840000000060
:1024980038DCFF7FB0B0A88090DCFF7F010000002F
:1024A80040DDFF7FB0A90280DCDDFF7FB0B0A880EF
:1024B8002CDEFF7F0100000038DEFF7FB0B0AA806D
:1024C80070DEFF7FAE71B28040DFFF7F0100000049
:1024D8003CDFFF7FAB3F388094DFFF7F01000000C7
:1024E800A0DFFF7FB0B0AA80DCDFFF7F0100000023
:1024F80098E0FF7FAB0EB28000E1FF7FB0AF0A80AB
:10250800CCE3FF7F01000000D0E3FF7FAB3F0480F6
:102518006CE6FF7F0100000058E8FF7F008404801C
:102528006CE8FF7F0100000068E8FF7FB0AD048021
:102538002CEBFF7FB0A803804CEBFF7F3CFFFF7FB5
:1025480050EBFF7F40FFFF7F5CEBFF7F0100000047
:10255800006CDC0200000000202440004024400001
:10256800602440000000000000000000000000009F
:1025780000000000102440000000000000000000DF
:102588000000000000000000000000000000000043
:102598000000000000000000000000000000000033
:1025A8000000000000000000000000000000000023
:0825B8000000000004080020EF
:04000005004000D0E7
:00000001FF
